:100000000C9475010C94A6010C94A6010C94A60105
:100010000C94A6010C94A6010C94A6010C94A601C4
:100020000C94A6010C94A6010C94A6010C94A601B4
:100030000C94A6010C94A6010C94A6010C94A601A4
:100040000C94A6010C94541C0C94A6010C94A601CB
:100050000C94A6010C94A6010C94A6010C94C01A51
:100060000C94A6010C94941B0C946A1B0C94A6018E
:100070000C94A6010C94A6010C94A6010C94A60164
:100080000C94261C0C94A6010C94A6010C94A601B9
:100090000C94341B0C940A1B0C94A6010C94A6011E
:1000A0000C94A6010C94A6010C94F81B0C94A601C8
:1000B0000C94A6010C94A6010C94A6010C94CA1BE6
:1000C0000C94A6010C94A6010C94A6010C94A60114
:1000D0000C94A6010C94A6010C94A6010C94A60104
:1000E0000C94A6010C94BD1A0C9489020C946B1A02
:1000F0000C94481A0C946E050C94241A0C94891ACA
:100100000C94D1040C9441040C945A020C94361AA9
:100110000C9421050C9467020C9463020C94370232
:100120000C9452020C9475020C94751A0C940B1AD0
:100130000C9471020C9475110C947B020C94521A5D
:100140000C941A1A0C94DF040C9456020C947F023F
:100150000C94061A0C949D1A0C948D020C94830234
:100160000C94101A0C94821C0C942E1A0C94931A52
:100170000C943E1A0C945C1A0C943C020C946D0284
:100180000C947D040C945D020C947F1A0C947911EC
:100190000C946E040C944E020000210024002700F1
:1001A0002A002D0030003300010100000401070186
:1001B0000A0100002200250028002B002E0031003B
:1001C000340002010000050108010B0100000A0BC8
:1001D00002090C0D0E0807030401000000000000D6
:1001E000000000000000000000000000000000000F
:1001F00000000000000000001211100000000000CC
:1002000000000000000000000000000000000000EE
:100210000000000020002300260029002C002F00F1
:10022000320000010000030106010901CDCCCC3DE4
:100230000AD7233C17B7D13877CC2B329595E624D3
:100240001FB14F0A000020410000C84200401C4678
:1002500020BCBE4CCA1B0E5AAEC59D7405050505D3
:10026000070508080808020202020A0A080804042E
:10027000040401010101010101010303030303035C
:100280000303040707070C0C0C0C0C0C0C0C0202EB
:10029000020206060606060606060B0B0B0B0B0BE8
:1002A0000B0B010210202008081020401020408075
:1002B000020102010804020101020408102040802A
:1002C00080402010080402018004020180402010B8
:1002D0000804020108040201010204081020408001
:1002E0000102040810204080821C11241FBECFEFA1
:1002F000D1E2DEBFCDBF00E00CBF13E0A0E0B2E072
:10030000E8EBF5E400E00BBF02C007900D92A833C4
:10031000B107D9F725E0A8E3B3E001C01D92AA32E6
:10032000B207E1F711E0C5E7D1E000E006C0219790
:100330000109802FFE010E94B520C437D10780E05B
:100340000807A9F70E94371D0C94DA220C940000CC
:10035000FC01A089B18982E08C93A485B5851C92AB
:10036000A685B7858FEC8C93108EA489B58986E01D
:100370008C93A289B3898C9180618C93A289B38973
:100380008C9188608C93A289B3898C9180688C93BE
:100390000288F389E02D80818F7D80830895CF923C
:1003A000DF92EF92FF92CF93DF93B0911705A0E019
:1003B0008111AB2F8091180590E0880F991FAC0137
:1003C0004E5E5D4FC0901D05D0901E05E0901F054C
:1003D000F090200530E020E0FA01C591D491E88149
:1003E000B90190E080E0EB23EA130AC02F5F3F4F92
:1003F0006C157D058E059F0578F36FEF7FEFCB01C0
:10040000DF91CF91FF90EF90DF90CF900895282F4C
:1004100030E0F901E453FE4F9491F901EE55FD4FA0
:100420004491245A3D4FF9012491222309F435C007
:10043000992311F191509231F8F4E92FF0E08827D7
:10044000EB5DFD4F8F4F0C94B52056025A023702D8
:100450004E0252023C025D02630267026D027102AB
:1004600075027B027F023C02830289028D02809129
:1004700080008F7780938000E22FF0E0EE0FFF1F67
:10048000EE54FE4FA591B4918FB7F894EC916111A1
:1004900048C040954E234C938FBF089580918000B3
:1004A0008F7DE8CF80918000877FE4CF84B58F7700
:1004B00084BDE2CF84B58F7DFBCF8091B0008F7774
:1004C0008093B000D9CF8091B0008F7DF9CF80911B
:1004D00090008F7780939000CFCF809190008F7D98
:1004E000F9CF80919000877FF5CF8091A0008F7722
:1004F0008093A000C1CF8091A0008F7DF9CF809123
:10050000A000877FF5CF809120018F778093200115
:10051000B3CF809120018F7DF9CF80912001877F1B
:10052000F5CF4E2BB8CFCF93DF9390E0FC01EE5583
:10053000FD4F2491845A9D4FFC0184918823D1F072
:1005400090E0880F991FFC01E856FE4FA591B491E9
:10055000FC01EE54FE4FC591D491623071F49FB707
:10056000F8943C91822F809583238C93E8812E2BE5
:1005700028839FBFDF91CF9108958FB7F894EC91B6
:100580002E2B2C938FBFF6CF90917B00977F90936B
:100590007B008653806480937C0080917A00806425
:1005A00080937A0080917A0086FDFCCF809178005C
:1005B0009091790008953FB7F89480913D03909110
:1005C0003E03A0913F03B091400326B5A89B05C010
:1005D0002F3F19F00196A11DB11D3FBFBA2FA92FC2
:1005E000982F8827BC01CD01620F711D811D911DBF
:1005F00042E0660F771F881F991F4A95D1F708952B
:100600008F929F92AF92BF92CF92DF92EF92FF9222
:100610004B015C010E94DB026B017C010E94DB024A
:100620006C197D098E099F09683E7340810591050B
:10063000A8F321E0821A9108A108B10888EEC80E3B
:1006400083E0D81EE11CF11C81149104A104B104C3
:1006500029F7FF90EF90DF90CF90BF90AF909F90E1
:100660008F900895CF92DF92EF92FF920F931F9396
:10067000CF93DF93CDB7DEB7C054D1400FB6F89417
:10068000DEBF0FBECDBF2FB7F8948091410390918C
:100690004203A0914303B09144032FBF4091190539
:1006A00050911A0560911B0570911C058C019D01EC
:1006B000041B150B260B370BB901A801403D574011
:1006C0006105710590F480912105C05CDE4F0FB685
:1006D000F894DEBF0FBECDBFDF91CF911F910F9178
:1006E000FF90EF90DF90CF9008958093190590933D
:1006F0001A05A0931B05B0931C05109214051092C7
:10070000130510921205109211051092100562E067
:10071000809115050E94930261E070E080E090E016
:100720000E94000361E0809115050E94930260E041
:10073000809115050E94070280911605855182302F
:1007400020F58BE291E10197F1F762E080911505C8
:100750000E9493028091220590E08230910538F04A
:10076000880F991F880F991F05970197F1F7F89443
:1007700080E00E94CF016F3F7F4F8F4F9F4F61F40A
:1007800010922105789480E0A0CF64E170E080E0D1
:1007900090E00E940003D9CF81E00E94CF016F3F1B
:1007A0007F4F8F4F9F4F61F38E010F5F1F4F6E0181
:1007B0008FEBC81A8EEFD80A780180E00E94CF0133
:1007C000F701608371838283938381E00E94CF016C
:1007D000F7016483758386839783F8E0EF0EF11C3D
:1007E000EC14FD0451F7789430E020E0F801C0806B
:1007F000D180E280F3804481558166817781FFEF6B
:10080000CF16DF06EF06FF0631F04F3F8FEF580798
:100810006807780719F410922105B5CFF90183E034
:10082000F595E7958A95E1F7E05FFA4F8081880FAB
:10083000C416D506E606F70610F180832F5F3F4FFA
:10084000085F1F4F2832310589F640911405209129
:10085000100580911105280F3327331F8091120551
:10086000280F311D80911305820F932F911D992719
:100870004817190681F681E08093210526CF816013
:10088000DCCFAF92BF92CF92DF92EF92FF920F93A5
:100890001F93CF93DF936C017B018B01040F151F16
:1008A000EB015E01AE18BF08C017D10759F069917E
:1008B000D601ED91FC910190F081E02DC6011995D2
:1008C000892B79F7C501DF91CF911F910F91FF908F
:1008D000EF90DF90CF90BF90AF900895FC01538DC3
:1008E000448D252F30E0842F90E0821B930B54170A
:1008F00010F0CF96089501970895FC01918D828D97
:10090000981761F0A28DAE0FBF2FB11D5D968C912F
:10091000928D9F5F9F73928F90E008958FEF9FEF6E
:1009200008952FB7F8948091410390914203A091CC
:100930004303B09144032FBF80934D0390934E0324
:10094000A0934F03B093500385E493E00E947D048D
:1009500097FF26C02FB7F8948091410390914203EE
:10096000A0914303B09144032FBF40914D03509198
:100970004E0360914F0370915003841B950BA60B9F
:10098000B70B4091490350914A0360914B0370911A
:100990004C0384179507A607B707B0F28FEF9FEFB8
:1009A0000895FC01918D828D981731F0828DE80FAA
:1009B000F11D858D90E008958FEF9FEF0895FC0164
:1009C000918D228D892F90E0805C9F4F821B910931
:1009D0008F739927089585E493E00E94DF0421E056
:1009E000892B09F420E0822F089582EE93E00E9483
:1009F000DF0421E0892B09F420E0822F0895FC0117
:100A0000A48DA80FB92FB11DA35ABF4F2C91848D6F
:100A100090E001968F739927848FA689B7892C93CC
:100A2000A089B1898C91837080648C93938D848D1F
:100A3000981306C00288F389E02D80818F7D808322
:100A40000895EF92FF920F931F93CF93DF93EC01E2
:100A500081E0888F9B8D8C8D98131AC0E889F98965
:100A6000808185FF15C09FB7F894EE89FF89608368
:100A7000E889F98980818370806480839FBF81E0E9
:100A800090E0DF91CF911F910F91FF90EF9008952B
:100A9000F62E0B8D10E00F5F1F4F0F731127E02E06
:100AA0008C8D8E110CC00FB607FCFACFE889F9893E
:100AB000808185FFF5CFCE010E94FF04F1CFEB8D41
:100AC000EC0FFD2FF11DE35AFF4FF0829FB7F89412
:100AD0000B8FEA89FB8980818062CFCFCF93DF9330
:100AE000EC01888D8823B9F0AA89BB89E889F98946
:100AF0008C9185FD03C0808186FD0DC00FB607FC7B
:100B0000F7CF8C9185FFF2CF808185FFEDCFCE01AD
:100B10000E94FF04E9CFDF91CF91089580E090E03B
:100B2000892B29F00E94F50481110E94000080E0C9
:100B300090E0892B29F00E94EB0481110E940000B3
:100B400080E090E0892B49F080E090E0892B29F04B
:100B50000E94000081110E94000080E090E0892B3B
:100B600049F080E090E0892B29F00E94000081117B
:100B70000C9400000895AF92BF92CF92DF92EF9253
:100B8000FF920F931F93CF93DF936B017A01EC01D8
:100B9000C85CDC4F28813CE0389F8001399F100DF4
:100BA0001124A0900F05B12C27FF1FC0FB0111825B
:100BB000108288818F5F888388819801280F311D7A
:100BC00087FD3A95F6012A153B051CF488818C3087
:100BD000C4F180819181049680349C4908F473C0EB
:100BE000F60180819181049670C088819801280F58
:100BF000311D87FD3A952A153B05DCF68881A80151
:100C0000480F511D87FD5A95FA01EE0FFF1FE40FA3
:100C1000F51FE158FB4F808186FFCBCF8881F8011B
:100C2000E80FF11D87FDFA95CF01EE0FFF1FE80FCA
:100C3000F91FE158FB4F808160E08F730E9407022B
:100C4000B8CF808191812881A801420F511D27FDD5
:100C50005A959A01FA01EE0FFF1FE20FF31FE158B8
:100C6000FB4F21813281820F931FF7019183808393
:100C700088819801280F311D87FD3A95F901EE0F03
:100C8000FF1FE20FF31FE158FB4F808186FF22C058
:100C90008881080F111D87FD1A95F801EE0FFF1FBF
:100CA000E00FF11FE158FB4F808161E08F73DF910E
:100CB000CF911F910F91FF90EF90DF90CF90BF9059
:100CC000AF900C94070280E49CE9F7019183808344
:100CD0008FEF8883DF91CF911F910F91FF90EF905D
:100CE000DF90CF90BF90AF9008956F3FA9F0E62FAF
:100CF000E295EF7044E0E49F90011124DC01ED9156
:100D0000FC91E20FF31F6F7082819381B6E06B9FBD
:100D1000800D911D1124089590E080E00895982F92
:100D200080336CF08A3324F08F3524F08B3724F431
:100D300081E0089581341CF081E09B350CF080E067
:100D40000895FC018485811114C0A781B085818537
:100D500092852FEF3FEFA817B90730F4CD01019628
:100D6000908787832C9130E037FD20E0238781E056
:100D70008487838508951F93CF93DF93EC01162F0B
:100D80000E94A106811306C01C8681E0DF91CF91ED
:100D90001F91089580E0FACF0F931F93CF93DF93B5
:100DA0008C01EB018991882369F0C8010E94A1069A
:100DB000882379F0FE013197908198130DC0F801D6
:100DC0001486F0CF90E080E0DF91CF911F910F91DA
:100DD000089582E090E0F8CF83E090E0F5CFCF93E4
:100DE000DF93EC01CE010E94A1068B304CF48930D8
:100DF0005CF4882359F081E08E8390E080E00BC0A2
:100E00008D3011F08032B9F71C86ECCF8E818111C4
:100E100005C081E090E0DF91CF91089582E090E0FD
:100E2000FACFFC01A281B3818081918130E020E082
:100E3000A817B90738F4CD010196938382836C9388
:100E400021E030E084819581820F931F9583848314
:100E50000895CF93DF93FC0182819381EB01460FCC
:100E6000571FA281B38120813181A217B30758F4A3
:100E7000C417D50741F02991BD016F5F7F4F738380
:100E800062832C93EECFA81BB90B84819581A80FA8
:100E9000B91FB583A483DF91CF9108958F929F925C
:100EA000AF92BF92CF92DF92EF92FF920F931F9378
:100EB000CF93DF93CDB7DEB766970FB6F894DEBF5A
:100EC0000FBECDBF6C018E01095E1F4F78018AE015
:100ED000882E912CA12CB12CCB01BA01A501940133
:100EE0000E94B71F942F852F605DF80162938F01D8
:100EF000A901692F782F411551056105710561F729
:100F0000A7014E1B5F0BBF01C6010E942907669611
:100F10000FB6F894DEBF0FBECDBFDF91CF911F910A
:100F20000F91FF90EF90DF90CF90BF90AF909F9088
:100F30008F900895CF93DF93DB01FC018081918135
:100F40000097E1F012962C91129713964C911397FB
:100F5000342F3F77FC0143814217130671F7ED915F
:100F6000FC911197EC0124962E0F3F1FE217F30717
:100F700029F0519149915417C9F3DFCFDF91CF91F7
:100F80000895DC0152969C915297915084E0989F6D
:100F9000900111245096ED91FC91E20FF31F2281F4
:100FA00033812115310579F041818081481758F44A
:100FB00081E0840F818386E0489F200D311D11243C
:100FC0002115310521F460E070E08FEF0895B9013B
:100FD000892F8295807F840F0895DF92EF92FF9290
:100FE0000F931F93CF93DF93EC017B01D12C688982
:100FF00079898A89D816E0F484E0D89E800111248A
:10100000060F171FD80112966D917C91611571051D
:1010100041F0D701ED91FC910280F381E02DC701F1
:101020001995F8011382128210821182D394DFCFB6
:101030001A8A8FEF8C8BC617D70761F0D701ED9115
:10104000FC910280F381E02DC7011995D98BC88BE3
:1010500084E08B8BDF91CF911F910F91FF90EF90E8
:10106000DF9008954F925F926F927F928F929F923E
:10107000AF92BF92CF92DF92EF92FF920F931F93A6
:10108000CF93DF9300D01F921F92CDB7DEB7DC0164
:101090002C912B32E1F12D32D9F50196EE24E39417
:1010A000FC01208130ED320F3A3010F02E3291F5F4
:1010B0008C0160E070E0CB01F801219130ED832ECE
:1010C000820E39E0381508F444C06A3949E97407DA
:1010D000840749E1940708F046C0AAE0B0E09B010C
:1010E000AC010E94A41F912CB12CA12C240135012C
:1010F000409450946094709446165706680679069A
:1011000090F1680D791D8A1D9B1D8F01D5CF019629
:10111000E12CC6CF198229813A814B815C816D8196
:1011200070E080E090E00F900F900F900F900F9084
:10113000DF91CF911F910F91FF90EF90DF90CF90B3
:10114000BF90AF909F908F907F906F905F904F90E7
:101150000895211108C0EE2051F16130710581051B
:1011600050E89507A0F0F12CBAE08B2E912CA12C21
:10117000B12C6115710530E883079105F8F0A501E0
:1011800094010E94B71FCA01B901F394F2CF22E083
:1011900029839B01AC0188279927DC01821B930BD3
:1011A000A40BB50B8A839B83AC83BD83B4CF23E0B0
:1011B00029836A837B838C839D83ADCFF801D8011B
:1011C0002D918D0130ED320F3A3010F4F394F6CFBB
:1011D0002E3201F58F010F5F1F4FF8010F5F1F4F78
:1011E0002081A0EDDA2ED20EB9E0BD1598F06C3C4E
:1011F000ECEC7E07ECE08E07910578F7AAE0B0E012
:101200009B01AC010E94A41F6D0D711D811D911DDC
:10121000FA94E3CF20812F7D10E000E0253409F01F
:1012200050C021812D32B1F53296CC24C394DF0118
:1012300010E000E02F2D0F2C000C330B5AE0B52EE0
:10124000FD01DD9040ED4D0D4A30B0F5B09EA0019E
:10125000B19E500D11240D2DDD0C110B0053110901
:10126000040F151FA801420F531F4732510544F3C5
:10127000CC20B9F080E090E0A0E0B0E8E11003C03D
:1012800080E090E0DC0121E029838A839B83AC83AA
:10129000BD8341CF2B3219F03196C12CC8CF329685
:1012A000FCCF80E090E0A0E8BFEFE110ECCF80E061
:1012B00090E0A0E8BFE7E7CFCC2019F011950195A9
:1012C00011092081211126CF0F0D111DF7FC1A9550
:1012D0000E94661E34E4C32E32E0D32E101611068F
:1012E0003CF01195019511094CE2C42E42E0D42E38
:1012F000F12C0115110591F000FF0CC024E0F29EC5
:10130000F0011124EC0DFD1D25913591459154916D
:101310000E94C71E15950795F394EBCFE1109058E6
:1013200021E029836A837B838C839D83F4CEDB0158
:10133000ED91FC9111970280F381E02DBC01CD016C
:101340001994AF92BF92CF92DF92EF92FF920F93D8
:101350001F93CF93DF93EC018B018C8180FF24C01E
:10136000A881B981FB018381948130E020E000975E
:10137000D9F0A817B907D1F5F801608171811296EB
:101380008C911297815012968C93129781110CC0F8
:101390008D919C9111972115310529F1F9019183C6
:1013A0008083CD010E9497098C81807631F120974E
:1013B00021F1F8805801F5E1AF0EB11C8FEFF8165E
:1013C000D1F06F2DC5010E9475066C01FC01E5800E
:1013D000B8010E94A109F801818DF6018083F8010E
:1013E000F18EFE2CEBCF94838383DBCF9C01FC0139
:1013F00080819181BCCFF882F9821C82DF91CF91EC
:101400001F910F91FF90EF90DF90CF90BF90AF9022
:1014100008950F931F93CF93DF93EC0108811981F7
:101420008B819C81009749F0FC01208131813C83B4
:101430002B83B8010E949709F3CF68817981CE018F
:101440000596DF91CF911F910F910C94ED07EF92CC
:10145000FF920F931F93CF93DF937C018B01EA01DF
:101460006F3F710509F0B0F4E881F9810480F581DE
:10147000E02DAB014B5F5F4FBC01CE01199500978A
:1014800049F0FC010383DF91CF911F910F91FF90F1
:10149000EF900895E881F9810280F381E02DB70192
:1014A000CE01199590E080E0EECFFF920F931F934D
:1014B000CF93DF93EC01F62E8A819B810097C9F0D0
:1014C0006C817D81FC0123812617170691F4088128
:1014D0001981F80140815181660F771F6F5F7F4F3F
:1014E0000E94270A009719F421E0F80122839B83C8
:1014F0008A838A819B81009759F02C813D81A901C3
:101500004F5F5F4F5D834C83820F931FFC01F4821A
:10151000DF91CF911F910F91FF9008959F92AF920D
:10152000BF92CF92DF92EF92FF920F931F93CF93D0
:10153000DF9300D01F921F92CDB7DEB78C010E94BF
:10154000A106D82EF8011486F12CE12C60EFC62EEE
:10155000C8010E94A106F8011486D81609F4B3C088
:10156000811113C082E090E00F900F900F900F90C8
:101570000F90DF91CF911F910F91FF90EF90DF902F
:10158000CF90BF90AF909F9008958C3509F099C08F
:10159000C8010E94A106882329F3E0E3F2E0853721
:1015A00009F083C0F801148654E0952EB12CA12CCB
:1015B000C8010E94A1068823A9F2813434F4805323
:1015C000803130F083E090E0CFCF8F7D8753F8CF2C
:1015D00044E0AA0CBB1C4A95E1F7A82AF80114863E
:1015E0009A949110E5CFC501985D8115944020F43F
:1015F0007501F3E0FF22ACCFC5019C5D81159440DD
:10160000A8F483E0B822B701762F6627770F770F0B
:101610006A297B2990E080E0019660387105810598
:10162000910540F4C8010E94550A92CFB50190E09F
:1016300080E0F3CF1982262F2F7320682A8326E0BB
:1016400096958795779567952A95D1F760327105BC
:1016500080F4606C6B835E01E4E0AE0EB11CF501BA
:1016600062915F01662309F473CFC8010E94550A95
:10167000F6CF262F2F7320682B8386E0769567950B
:101680008A95E1F76031710538F4606E6C835E0114
:10169000F5E0AF0EB11CE3CF60686C83CD825E01D4
:1016A00026E0A20EB11CDBCF32969081992309F47B
:1016B00089CF8913F9CF8181882309F483CFF80179
:1016C0001486682FAFCF82819381892B19F484E02F
:1016D00090E04ACF90E080E047CFAF92BF92CF92A8
:1016E000DF92EF92FF920F931F93CF93DF9300D07F
:1016F0001F92CDB7DEB78C01DC011296ED91FC9103
:10170000139714968D919C911597E80FF91F1482E9
:10171000ED90FC9011971496AC9014971596BC9090
:1017200015971296CD90DC90C60104969A83898312
:10173000AB828B2D8F778C83BE016F5F7F4FC7018C
:1017400003960E949A07009749F5F701408151815D
:10175000B501C6010E94270A009721F421E0D701B4
:1017600012962C93D801ED91FC9123813481DC01F8
:101770002D933C9394838383F801138212820F90FC
:101780000F900F900F90DF91CF911F910F91FF90CD
:10179000EF90DF90CF90BF90AF900895DC0112964C
:1017A0002C9112972F5F12962C93E9CFCF93DF9352
:1017B000EC01CB01CF3FD10509F0B0F4BE016B5F66
:1017C0007F4F6C177D0780F0DC01ED91FC9101905B
:1017D000F081E02D1995009721F0FC01C38321E0F1
:1017E0002283DF91CF91089590E080E0FACFFB0152
:1017F00001900020E9F73197AF01461B570B0C947D
:1018000041048F929F92AF92BF920F931F93CF93F9
:10181000DF93CDB7DEB7A1970FB6F894DEBF0FBE4A
:10182000CDBF19A2423008F44AE08E010F5D1F4F70
:10183000842E912CB12CA12CA50194010E94B71FDC
:10184000E62FB901CA01EA3004F5E05DD801EE9354
:101850008D01232B242B252B79F790E080E0109726
:1018600029F0BD0182EE93E00E94F70BA1960FB61E
:10187000F894DEBF0FBECDBFDF91CF911F910F91C6
:10188000BF90AF909F908F900895E95CDFCFCF928B
:10189000DF92EF92FF92CF93DF936B017C016DE2B9
:1018A00082EE93E00E942105EC0166277727CB01A9
:1018B0006C197D098E099F094AE00E94010C8C0F6A
:1018C0009D1FDF91CF91FF90EF90DF90CF90089513
:1018D0000F931F93CF93DF938C01D0E0C0E061158D
:1018E000710519F00E94F70BEC0163E472E0C80186
:1018F0000E94F70B8C0F9D1FDF91CF911F910F91CD
:101900000895FB0101900020E9F73197AF01461BD4
:10191000570B0C942907CF92DF92EF92FF920F930F
:101920001F93CF93DF938C016B017A0162E20E94D7
:101930001107E601EC0CFD1CEC16FD0699F069910F
:10194000E0E3F2E0D480DD20C9F0329683816813B1
:10195000F9CF6CE5C8010E9411076D2DC8010E94E6
:101960001107EACF62E2C801DF91CF911F910F9179
:10197000FF90EF90DF90CF900C9411076111EECFA4
:1019800066E472E0C8010E94810CD6CF2F923F928C
:101990004F925F926F927F928F929F92AF92BF927F
:1019A000CF92DF92EF92FF920F931F93CF93DF932B
:1019B000CDB7DEB76B970FB6F894DEBF0FBECDBFC5
:1019C0007C018B01DC0114968C9114978A3009F408
:1019D000A0C2F0F4843009F479C268F4833009F4C9
:1019E00090C26DE472E0C8010E94810CD801149687
:1019F0008D919C9129C2853009F47BC2863089F78C
:101A00008C9162E572E0811155C067E572E052C0C9
:101A10008E3009F440C0C8F48C3019F7CD90DD90B9
:101A2000ED90FC90B701A601F7FE0BC06DE2C80176
:101A30000E94110744275527BA014C195D096E0908
:101A40007F09C8010E944E07FCC1803209F415C20B
:101A5000803439F66BE5C8010E941107D701FC906C
:101A6000BFEFFB1609F4E9C1F801868197816F2D5C
:101A700045960E9475067C01B8010E94C60CD701EC
:101A80001596FC90BFEFFB1609F4D7C16CE2C801B4
:101A90000E941107E5CFF70180809180A280B3807A
:101AA000A5019401C501B4010E94611E882331F093
:101AB0006DE472E0C8010E94810CC3C120E030E0F7
:101AC000A901C501B4010E94611E882371F0A5011E
:101AD0009401C501B4010E94E91F9B01AC01C5013D
:101AE000B4010E94611E882319F320E030E0A901AF
:101AF000C501B4010E94611E87FF08C06DE2C801E4
:101B00000E941107B7FAB094B7F8B09420E836E90C
:101B100048E15BE4C501B4010E948B2087FD83C0CE
:101B200074E1C72ED12CE0E2EE2EF12C312C212CC9
:101B3000F601EC5BFD4F6591759185919491A5013E
:101B400094010E94611E18167CF0F601E45DFD4FC1
:101B50002591359145915491C501B4010E94C71E4C
:101B60004B015C012E0C3F1CF594E794F4E0CF1A76
:101B7000D1082CEFC2162FEFD206D1F63FEF3F8BE4
:101B800020E030E0A901C501B4010E948B201816A5
:101B90000CF051C02CEA35EC47E257E3C501B40123
:101BA0000E94611E18160CF446C0AF89B4E0AB0267
:101BB000C0011124D12CC12CFC01E45DFD4F2F018B
:101BC0009C012C5B3D4F39013F893F3F09F433C0F5
:101BD000F201EC0DFD1D659175918591949120E0C8
:101BE00030E040E251E40E94C71EA50194010E942A
:101BF0008B2018167CF4F301EC0DFD1D2591359119
:101C000045915491C501B4010E94C71E4B015C016E
:101C10002E183F08F594E7948F8981508F8B94E0BC
:101C2000C91AD108D1CF50E2E52EF12C85E08F8B77
:101C3000312C212CA5CFC501B4010E945C206B0181
:101C40007C012B013C0180E492E4AFE0B0E0888F9E
:101C5000998FAA8FBB8F96E09F8BAAE04A165104FA
:101C600061047104E0F0688D798D8A8D9B8D2AE086
:101C700030E040E050E00E94B71F288F398F4A8F34
:101C80005B8FBF89B150BF8BC301B2012AE030E046
:101C900040E050E00E94B71F29013A01DECFC701A2
:101CA000B6010E94661E9B01AC01C501B4010E94F1
:101CB000E81F4B015C01688D798D8A8D9B8D0E9498
:101CC000661E9B01AC01C501B4010E94C71E2B0119
:101CD0003C010E945C204B015C010E94661E9B013E
:101CE000AC01C301B2010E94E81F9B01AC010E943C
:101CF000E91F0E945C20860E971EA81EB91E888DC3
:101D0000998DAA8DBB8D88169906AA06BB06C0F0D0
:101D10009FEFC91AD90AE90AF90A2114310439F1E5
:101D2000AAE0CA16D104E104F10408F1BFEF2B1AAE
:101D30003B0A812C912C5401C12CD12C7601C394E7
:101D40002AE0422E512C612C712CC501B401A30153
:101D500092010E94B71F672B682B692B61F4EF89F2
:101D60001E164CF449015A01E150EF8BEECF812C45
:101D7000912C5401E5CFB701A601C8010E944E077E
:101D8000FF89FF2391F16E0121E1C20ED11CF88F72
:101D900076019AE0492E512C612C712C388D3150EE
:101DA000388F3F3F69F0C501B401A30192010E9441
:101DB000B71F605DD6016E936D0149015A01EECFE8
:101DC000BF898B2F90E0BC0160957095F701E81BEF
:101DD000F90B31978EE2808344275527461B570B1A
:101DE0006E0D7F1DC8010E9429072114310449F19D
:101DF00065E6C8010E941107710137FE07C06DE258
:101E0000C8010E941107F194E194F108FE01779650
:101E10009F018AE0C82ED12CC701B6010E94A120E3
:101E2000805D82937B01672BB9F7A9014E1B5F0B85
:101E3000BF01C8010E94290704C06DE5C8010E94C6
:101E40001107F801848195816B960FB6F894DEBF77
:101E50000FBECDBFDF91CF911F910F91FF90EF90FB
:101E6000DF90CF90BF90AF909F908F907F906F90BA
:101E70005F904F903F902F9008956BE7C8010E94AC
:101E80001107D701FC90EE24E394BB24B394BFEF79
:101E9000FB16D1F0F801868197816F2D45960E943F
:101EA00075066C01B8010E94C60CD6011596FC900F
:101EB000BFEFFB1639F06AE3E11001C06CE2C80124
:101EC0000E941107EB24E3CF6DE7B8CF6D917C91B1
:101ED00050E040E06115710541F0FB0101900020E8
:101EE000E9F73197AF01461B570BC8010E948B0CD5
:101EF000A8CFED91FC91438150E0BF016C5F7F4F13
:101F0000F4CFED91FC91438150E0BF016C5F7F4FB6
:101F100090CF4D915D916D917C9193CD9F92AF92B9
:101F2000BF92CF92DF92EF92FF920F931F93CF93C6
:101F3000DF938A01452B09F463C0E9016B016596C3
:101F4000FC016081CE010E947506FC01BB24BA949D
:101F5000892B09F0B5807601E894F7F8AA24A394B8
:101F60006701C00ED11E99249394309709F448C09C
:101F7000AA20D9F18481843039F0853051F190E084
:101F800080E0B0E0A0E00FC0A081B18190E080E0EF
:101F9000109741F0FD0101900020E9F73197CF0142
:101FA0008A1B9B0B9F77E816F906F9F4F801EC15EC
:101FB000FD05B9F46B2DCE01DF91CF911F910F91EB
:101FC000FF90EF90DF90CF90BF90AF909F900C94D8
:101FD00075060190F081E02DDF011496838190E079
:101FE000E2CF91918D91981711F3A9246B2DCE0119
:101FF0000E947506FC01892B09F4B7CFB580B5CFD7
:1020000090E080E0DF91CF911F910F91FF90EF90D2
:10201000DF90CF90BF90AF909F900895FC012081FA
:102020003181C9014A96428153816481758100974B
:1020300059F0D9015E96EC91E03211F090E080E029
:10204000009711F00C948E0F90E080E00895CF93EC
:102050000E940E10FC01892B41F194819A30E1F02D
:1020600040F4992311F19630A9F0C1E08C2FCF9163
:1020700008959C3089F09E30C1F7C1E020E030E047
:10208000A90160817181828193810E94611E811109
:10209000EDCF0BC0C081EACFC1E080819181A281E8
:1020A000B381892B8A2B8B2B09F7C0E0DFCFCF932D
:1020B000DF9300D01F921F92CDB7DEB70E940E10A3
:1020C000FC01892B41F084818630A1F040F48430FA
:1020D000F9F0853081F160E070E0CB0134C08C30E4
:1020E00081F08E3061F18A30B1F760817181828137
:1020F000938104C0608170E090E080E00E94661EE1
:1021000022C060817181828193810E94681E1BC000
:10211000808191810E9432083A834B835C836D8376
:102120006A817B818C819D81223079F3233031F368
:10213000213089F608C0808191810496EBCF6081BF
:102140007181828193810F900F900F900F900F906B
:10215000DF91CF910895CF92DF92EF92FF92CF93CC
:10216000DF9300D01F921F92CDB7DEB70E940E10F2
:10217000FC01892B49F084818630E1F040F4843001
:10218000C9F1853009F44AC070E060E015C08C30B8
:1021900001F18E3009F446C08A30B1F78081918117
:1021A000A281B381811520E89207A105B10560F7EE
:1021B000BC0102C0608170E0CB010F900F900F90C6
:1021C0000F900F90DF91CF91FF90EF90DF90CF9025
:1021D000089580819181A281B3816C017D0120E805
:1021E000D20EE11CF11CC114D10421E0E206F1047D
:1021F00058F6DECF808191810E9432083A834B836A
:102200005C836D83CA80DB80EC80FD80223041F1ED
:10221000233091F1213009F0B7CF08C0808191813E
:102220000496EACFC080D180E280F38020E030E0E5
:1022300040E057ECC701B6010E948B2087FDA4CF78
:1022400020E03EEF4FEF56E4C701B6010E94611E49
:1022500018160CF499CFC701B6010E945520ACCFD7
:10226000D701C6019058AF4FBF4F0097A140B105AD
:1022700008F08ACFB601A0CFC11480E8D806E104E7
:10228000F104C0F381CFBC01990F880B990B97FD26
:102290000C94470C4AE00C94010C0F931F93CF93BE
:1022A000DF93EC0188819981009759F02A813B8165
:1022B0002617370730F081E0DF91CF911F910F9102
:1022C00008958B016F5F7F4F0E94E921009759F0BD
:1022D000998388831B830A832C813D81232B59F7A3
:1022E000FC011082E8CF80E0E7CFCB01BA010C946B
:1022F000E921CB010C946021BF92CF92DF92EF9243
:10230000FF920F931F93CF93DF93EC01198D1F3F23
:1023100081F0612F45960E947506FC018081898FAE
:10232000309709F477C014828FEF8583BF01812F26
:1023300076C06C0135E0C30ED11CE880F9808F892E
:10234000882341F0C6010E94C107E62FF72F182FFE
:10235000309749F71F89988D191324C0103109F45B
:1023600059C0110F6D897E89D701ED91FC91B4E0C0
:102370001B9FA0011124C616D70609F044C0019086
:10238000F081E02DBA01C7011995009709F442C008
:1023900020E1F601DC0101900D922A95E1F79E8B78
:1023A0008D8B188F0D891E898F8921E0280F2F8B27
:1023B000E4E08E9FC0011124080F191F90E1B92E8F
:1023C000203111F48FE0B82EF6E0BF9EB001112449
:1023D000D701ED91FC910190F081E02DC701199595
:1023E000F80193838283892B09F4B12CD801BC9224
:1023F00011961C92012B71F0C6010E94C107E62FB5
:10240000F72F182F8DCF0480F581E02DC701199586
:10241000009729F681E08A8360E070E08FEFDF911A
:10242000CF911F910F91FF90EF90DF90CF90BF90D1
:1024300008952F923F924F925F926F927F928F9268
:102440009F92AF92BF92CF92DF92EF92FF920F9343
:102450001F93CF93DF9300D01F921F92CDB7DEB7AB
:102460008C017B01542E0E94EF066C01892B09F030
:1024700059C0C8010E94A106863609F4D3C1ACF543
:10248000873229F08B35E9F1823209F0D4C1D801C5
:1024900015961C921E92149712968D919C911397EB
:1024A000892B91F4CD90DC90F601608171818FE1F0
:1024B00090E00E94D60B009721F421E0D6011296FD
:1024C0002C93F80193838283C8010E948E0A6C01C9
:1024D000892B41F5C8010E946D0B25E0D7011496A8
:1024E0002C9314978D939C931DC0843709F479C164
:1024F0008B3709F47DC08E3609F09DC16DE472E022
:1025000077C180E4D70114968C931497E114F104F9
:1025100021F08FEF8C9311968C9351101CC025E005
:10252000C22ED12CC6010F900F900F900F900F90DC
:10253000DF91CF911F910F91FF90EF90DF90CF909F
:10254000BF90AF909F908F907F906F905F904F90D3
:102550003F902F900895F8011486C8010E94EF065D
:10256000009751F56DE5C8010E94BB068111DACFD5
:102570005A94D8011D968D909C90C4010E947C11A4
:10258000782E5B01672B21F494E0C92ED12CCACFA1
:10259000F70161816F3F91F0C40145960E94750675
:1025A000DC0115967C92F7017182452DB501C801B9
:1025B0000E941912009739F06C01B4CFD7018C93A7
:1025C00011968C93F2CFC8010E94EF060097A1F7F5
:1025D0006DE5C8010E94BB068111A4CF6CE2C80161
:1025E0000E94BB068111C5CF83E0C82ED12C9ACFA3
:1025F00080E2F7018483E114F10419F08FEF808306
:102600008183552009F48BCFD8011C961C92C801F8
:102610000E94EF06009781F66DE7C8010E94BB0695
:10262000811180CF5A94F80115821482828193819E
:10263000892B99F4C080D180D6016D917C918FE176
:1026400090E00E94D60B009719F421E0F601228356
:10265000D80113969C938E931297C8010E94A106ED
:10266000873201F18232F1F0C8010E94A106D82E12
:102670000E948F06882309F4B7CFF80114866D2DC8
:10268000C8010E94550AC8010E94A106D82E0E94C6
:102690008F068111F2CFD80112968D919C91892BD2
:1026A00041F472CFC8010E948E0A6C01892B09F097
:1026B00039CFC8010E94EF066C01892B09F032CF97
:1026C0006AE3C8010E94BB06882309F48DCFD801B4
:1026D0001296ED91FC91139714968D919C911597FC
:1026E000E80FF91F148214966D917C9115977F77EE
:1026F0001D96AD90BC901E9712968D919C9104965C
:10270000272F2F77B42DB0784B2E422AE89447F824
:102710009501AC01742DC7010E948E0F6C010097CA
:1027200009F05BC0C8010E946D0B3C01F801858473
:102730009684C4010E947C11282E5B01672B09F44A
:1027400023CFC4010E947C11382E962FC92ED72E7C
:10275000C114D10409F418CFE5E0D5011496EC9327
:10276000149711967C926E9215963C92D701119611
:102770006C916F3F71F1C40145960E947506FC0192
:102780002582D70111963C92452DB601C8010E94C1
:1027900019126C01892B09F0C5CEC8010E94EF0601
:1027A0006C01892B09F0BECE6DE7C8010E94BB0603
:1027B0008111B8CE6CE2C8010E94BB06882309F4DF
:1027C00013CFC8010E94EF066C01892B09F42BCFAF
:1027D000A9CEF70120823182D7CFB5010E94A1098D
:1027E000D3CF86E0F701848381E0808362E572E0E5
:1027F000C8010F900F900F900F900F90DF91CF9125
:102800001F910F91FF90EF90DF90CF90BF90AF900E
:102810009F908F907F906F905F904F903F902F9000
:102820000C94CC0686E0D70114968C9314971C92D6
:1028300067E572E0DDCFC8010E94A1064801BFE054
:102840008B0E911CB12C782CA92C803384F08A3308
:1028500084F4EFE3BE16A9F0D8011C961C92B39441
:10286000F40181934F01C8010E94A106EECF8B3283
:1028700081F393ED980F923060F3982F9F7D9534FC
:1028800041F30B0D111DD8011F961C92872D9A2D17
:102890000E9432083A834B835C836D838A819B81DB
:1028A000AC81BD812230A9F0233059F0213009F0EC
:1028B0009BCE2EE0F701248380839183A283B38390
:1028C00031CE2AE0F701248380839183A283B383EE
:1028D00029CE2CE0F7CF2F923F924F925F926F92CA
:1028E0007F928F929F92AF92BF92CF92DF92EF92A0
:1028F000FF920F931F93CF93DF9300D000D000D0AF
:10290000CDB7DEB7FC0141155105E1F4912C812CC6
:10291000C40129960FB6F894DEBF0FBECDBFDF917C
:10292000CF911F910F91FF90EF90DF90CF90BF90CC
:10293000AF909F908F907F906F905F904F903F905F
:102940002F9008958481811139C080E2848330976B
:10295000E9F28FEF8083818379012A013B018F01A6
:10296000CF010E948E0F4C01892B91F6C7010E9466
:102970007C118F836B01672B59F2C7010E947C1178
:10298000282E5B01672B21F2372C77FE1DC084E0D7
:10299000F601848351824082F6012582F80161812B
:1029A0006F3F09F45DC0C70145960E9475062F81EF
:1029B000FC012583F80121824501AACF803209F06C
:1029C000A5CF309749F6A2CFE89437F8F7010190E8
:1029D000F081E02DF987E88749825A826B823C8238
:1029E000BE016F5F7F4FC70103960E949A07009751
:1029F00051F0FC0122812F5F228325E0F601248320
:102A000091838083C9CF6D82E89437F83E826885D0
:102A100079858D819E810E94D60B009721F481E0FB
:102A2000F701828375CFE981FA81DC0114962D814B
:102A30003E812E0F3F1F2E173F0719F041914D93F6
:102A4000FACFED81FE81E80FF91F1482F70123818F
:102A50003481FC0131832083F70194838383CDCFBC
:102A60002F812083A8CFCF92DF92EF92FF920F9316
:102A70001F93CF93DF93FC0100811181C8014A9617
:102A800019F17B01428153816481758198010E9413
:102A90006B14EC010097C1F0F701C080D180E28097
:102AA000F380B8010E94A1098EE08C83C882D9828C
:102AB000EA82FB8281E0DF91CF911F910F91FF901D
:102AC000EF90DF90CF90089580E0F5CFEF92FF92E6
:102AD0000F931F93CF93DF93FC01E080F180C70138
:102AE0004A9641F480E0DF91CF911F910F91FF90C2
:102AF000EF9008958B014281538164817581970124
:102B00000E946B14EC01009769F3F80100811181B8
:102B1000B7010E94A1098CE08C83012E000C220BCE
:102B2000330B088319832A833B8381E0DCCF4F92E8
:102B30005F926F927F928F929F92AF92BF92CF924D
:102B4000DF92EF92FF920F931F93CF93DF93CDB756
:102B5000DEB7C15AD8400FB6F894DEBF0FBECDBF66
:102B60000E943203882341F0809116058C3009F4CD
:102B700064C038F48B30F1F060E070E080EC9FE7E7
:102B800041C085518230C0F710911205612F70E06D
:102B9000762F662766277F7780911305682B90E054
:102BA00080E00E94661E2DEC3CEC4CEC5DE30E9444
:102BB000C71E5FC06091120570E090E080E00E9447
:102BC000661E6B017C011091130517FF0AC0AC0152
:102BD0009B0160E070E080E89FEB0E94E81F6B01C2
:102BE0007C011F70612F70E090E080E00E94681E01
:102BF0002DEC3CEC4CEC5DE30E94C71EA701960156
:102C00000E94E91FCA56D74F688379838A839B83C2
:102C1000C659D8400E943203882351F0809116058E
:102C20008B3030F08D3048F18551823008F4A0C0EF
:102C300060E070E080EC9FE73CC010911205612FCE
:102C400070E090E080E00E94661E6B017C01609164
:102C500013056F7070E090E080E00E94681E2DEC1C
:102C60003CEC4CEC5DE30E94C71EA70196010E945C
:102C7000E91F17FFC7CF9058C5CF6091110570E0CD
:102C800090E080E00E94681E2DEC3CEC4CEC5DE393
:102C90000E94C71E6B017C016091100570E090E0FE
:102CA00080E00E94681E9B01AC01C701B6010E9432
:102CB000E91FC656D74F688379838A839B83CA5995
:102CC000D84087E30E94C40224EB30E0DC010E947C
:102CD000BD202FEF33E040E050E00E94851FC25638
:102CE000D74F39832883CE59D84086E30E94C40247
:102CF000C056D74F99838883C05AD840CA56D74FF9
:102D0000688179818A819B81C659D8409B01AC0139
:102D10000E94902081110EC0C656D74F68817981DC
:102D20008A819B81CA59D8409B01AC010E949020A6
:102D3000882381F16DE572E082EE93E00E94680CD9
:102D4000CF55D74F0FB6F894DEBF0FBECDBFDF9182
:102D5000CF911F910F91FF90EF90DF90CF90BF9098
:102D6000AF909F908F907F906F905F904F9008955D
:102D7000609110057091110576276727762790E0FE
:102D800080E00E94661E2DEC3CEC4CEC5DE30E9462
:102D9000C71E8FCF6E0120E9C21A27EFD20A80E04A
:102DA00092E0D60111969C938E9312961C921297E4
:102DB00014961C921E921397C601059656969C93E4
:102DC0008E93559757961C92579784E058968C93FC
:102DD00058979FEF59969C9359975E961C925E97D1
:102DE0005F969C938E010F5F174F21E030E0F80152
:102DF00031832083DA82C98225E732E03C832B834A
:102E00008D838E81807880688E83B801CE01019693
:102E10007C010E946615DA82C9828AE792E09C836F
:102E20008B838BE08D838E81807880688E83BE015A
:102E30006A56774FC7010E943315DA82C98286E845
:102E400092E09C838B8388E08D838E81807880687C
:102E50008E83BE016656774FC7010E943315DA8212
:102E6000C9828FE892E09C838B8380E18D838E8181
:102E7000807880688E83BE016256774FC7010E94BA
:102E80006615DA82C98280EA92E09C838B8383E0B4
:102E90008D838E81807880688E83BE016056774FE7
:102EA000C7010E946615C256D74FA881B981CE5975
:102EB000D840A03292E0B9070CF03FC080912405C1
:102EC000E8E84E2E512C481A510887FD5394440CC3
:102ED000551C440C551C052C000C66087708809185
:102EE000250598E5892E92E0992E881A910887FD8C
:102EF0009394880C991C880C991C092C000CAA0826
:102F0000BB08A50194012419350946095709A53BB9
:102F1000B10514F0A4EBB0E0B7FF02C0B0E0A0E050
:102F20000E94AF1F24EB30E040E050E00E94851F7C
:102F3000420E531E641E751ED201E0912305E0333C
:102F400080F52091240588E890E0821B910927FDF7
:102F50009395880F991F880F991FA817B90784F0B8
:102F60002091250588E592E0821B910927FD939524
:102F7000880F991F880F991FA817B9070CF4CD0166
:102F80000297880F991F4FB7F8942E2F30E0F90160
:102F9000EE0FFF1FE20FF31FE158FB4F9283818377
:102FA0004FBFD80111961C930E931396FC92EE928C
:102FB000129715961C921E9214971796DC92CE9239
:102FC0001697B801C6014A960E94C60C8115B8E052
:102FD0009B0720F48E0D9F1DFC011082B70185E434
:102FE00093E00E94680C64EA72E082EE93E00E9433
:102FF000F70BB70182EE93E00E94680C85E493E042
:103000000E94DF04892B09F418C1C057D74F1982D9
:103010001882C059D840CE56D74F19821882C2594B
:10302000D840CC56D74F19821882C459D84070E086
:1030300060E0CE018057974F0E944D11C057D74F87
:1030400028813981C059D84081114CC021153105E2
:1030500019F0C9010E946021C057D74F1982188208
:10306000C059D840CC56D74F19821882C459D8407D
:10307000CE56D74F19821882C259D8400E94910467
:10308000CC56D74FA880B980C459D84097FD36C0D8
:103090008A30910599F1D8018C9311961C92BFEF5B
:1030A000AB1ABB0AB501CE018057974F0E944D1154
:1030B000882321F3C057D74F28813981C059D84080
:1030C000CC56D74F88819981C459D840B801820F16
:1030D000931F0E94D322CC56D74FB982A882C459DD
:1030E000D840CCCFCC56D74F19821882C459D8407B
:1030F00062E472E0C9010E94D322C0CF7E01E0EBFE
:10310000EE1AE7EFFE0A80E092E0D70111969C9359
:103110008E9312961C92129714961C921E921397DD
:10312000C701059656969C938E93559757961C9279
:10313000579724E058962C9358972FEF59962C9335
:1031400059975E961C925E975F962C93C057D74F07
:1031500088809980C059D84060E072E00E94ED07F5
:10316000F701128260807180D70113968D919C9136
:103170001497009759F0FC012081318114963C93FB
:103180002E931397B3010E949709EECF5E961C927F
:10319000F801F182E0821382128215821482168273
:1031A00090868782A80CB91CB286A1861486F68602
:1031B000E5864AE0B701665E7F4FC8010E9419129A
:1031C0005C01892B61F4D8011B968C91882339F01E
:1031D000F701868D83FF03C023E0A22EB12CD80116
:1031E00012968D919C911397009731F0ED91FC917F
:1031F000608171810E949709A114B10441F162EBD1
:1032000072E082EE93E00E94F70BF501EE0FFF1FD4
:10321000EE5EFD4F6081718182EE93E00E94680C4A
:10322000C7010E94090AC057D74F88819981C059A8
:10323000D840009711F00E94602168EC70E080E0B7
:1032400090E00E940003C6010E94090A79CDF801AE
:10325000F182E08285E792E09383828384E0848335
:103260008581807880688583C8010E94AB10D80171
:103270001196FC92EE928AE792E013969C938E93BD
:1032800012978BE014968C93149715968C91159742
:103290008078806815968C93C8010E945710F801B9
:1032A000F182E08286E892E09383828388E08483DF
:1032B0008581807880688583C8010E945710D80175
:1032C0001196FC92EE9287EC92E013969C938E936B
:1032D000129785E0882E14968C9214971596BC90C0
:1032E000BB2DB078BB2E6894B7F8F801B582C80141
:1032F0000E942710A82E8DEC92E0D80113969C9383
:103300008E93129783E014968C9314976894B7F871
:103310001596BC92C8010E942710982E81ED92E06C
:10332000F8019383828384826894B7F8B582C801D8
:103330000E94AB108C01AA2009F404C1692D87E01A
:103340000E94070261E0692586E00E94070261E0B1
:1033500085E00E9493020115110599F560E085E072
:103360000E94070267ED72E082EE93E00E94F70B85
:1033700065EE72E082EE93E00E94F70B8A2D90E0FA
:103380000E9443116CEE72E082EE93E00E94F70B14
:10339000892D90E00E94431163EF72E082EE93E08A
:1033A0000E94F70BB801110F880B990B97FFE1C032
:1033B0000E94470C63E472E082EE93E00E94F70BF8
:1033C0002FCF0F3F110511F461E0C9CFE1EDF1E01E
:1033D000E491E150E23108F0B0C0F0E08827EC5011
:1033E000F64E8F4F0C94B520061A0B1A101A1A1AA3
:1033F000241A9D1A2E1A361A3E1A481A521A5C1AA4
:103400006B1A751A9D1A7F1A891A931A84B58068E7
:1034100084BD07BDA7CF84B5806284BD08BDA2CF9F
:1034200080918000806880938000109389000093D1
:10343000880098CF809180008062809380001093F4
:103440008B0000938A008ECF8091800088608093EB
:10345000800010938D0000938C0084CF8091B00089
:1034600080688093B0000093B3007CCF8091B0005F
:1034700080628093B0000093B40074CF809190007C
:1034800080688093900010939900009398006ACF11
:103490008091900080628093900010939B00009335
:1034A0009A0060CF80919000886080939000109384
:1034B0009D0000939C0056CF8091A000806880936F
:1034C000A0008091A0008F7B8093A0001093A900A2
:1034D0000093A80047CF8091A00080628093A00055
:1034E0001093AB000093AA003DCF8091A0008860AC
:1034F0008093A0001093AD000093AC0033CF809177
:1035000020018068809320011093290100932801F5
:1035100029CF8091200180628093200110932B019C
:1035200000932A011FCF80912001886080932001A1
:1035300010932D0100932C0115CF003811050CF0CC
:1035400043CF0CCF60E087E00E94070260E086E096
:103550000E94070261E085E00E94930260E085E03E
:103560000E94070264E670E080E090E00E940003A1
:10357000F9CE4AE00E94010C1DCFCB010C94C4206F
:103580001F920F920FB60F9211242F933F938F9398
:103590009F93AF93BF938091410390914203A09179
:1035A0004303B091440330913C0323E0230F2D37B4
:1035B00058F50196A11DB11D20933C038093410352
:1035C00090934203A0934303B093440380913D033F
:1035D00090913E03A0913F03B09140030196A11D3D
:1035E000B11D80933D0390933E03A0933F03B0939E
:1035F0004003BF91AF919F918F913F912F910F9079
:103600000FBE0F901F90189526E8230F0296A11D5C
:10361000B11DD2CF1F920F920FB60F9211240BB68D
:103620000F922F933F934F935F936F937F938F935B
:103630009F93AF93BF93EF93FF9385E493E00E9432
:10364000FF04FF91EF91BF91AF919F918F917F9177
:103650006F915F914F913F912F910F900BBE0F9003
:103660000FBE0F901F9018951F920F920FB60F92DA
:1036700011240BB60F922F938F939F93EF93FF9389
:10368000E0915503F09156038081E0915B03F09146
:103690005C0382FD1DC0908180915E038F5F8F73FC
:1036A00020915F03821741F0E0915E03F0E0EB5B55
:1036B000FC4F958F80935E03FF91EF919F918F91C7
:1036C0002F910F900BBE0F900FBE0F901F9018956B
:1036D0008081F2CF1F920F920FB60F9211240BB67A
:1036E0000F922F933F934F935F936F937F938F939B
:1036F0009F93AF93BF93EF93FF9382EE93E00E946B
:10370000FF04FF91EF91BF91AF919F918F917F91B6
:103710006F915F914F913F912F910F900BBE0F9042
:103720000FBE0F901F9018951F920F920FB60F9219
:1037300011240BB60F922F938F939F93EF93FF93C8
:10374000E091F203F091F3038081E091F803F091AE
:10375000F90382FD1DC090818091FB038F5F8F7301
:103760002091FC03821741F0E091FB03F0E0EE5161
:10377000FC4F958F8093FB03FF91EF919F918F9169
:103780002F910F900BBE0F900FBE0F901F901895AA
:103790008081F2CF1F920F920FB60F9211240BB6B9
:1037A0000F922F933F934F935F936F937F938F93DA
:1037B0009F93AF93BF93EF93FF9348E251E064E28E
:1037C00071E090E080E00E94BB05FF91EF91BF9116
:1037D000AF919F918F917F916F915F914F913F91A9
:1037E0002F910F900BBE0F900FBE0F901F9018954A
:1037F0001F920F920FB60F9211240BB60F922F93B8
:103800003F934F935F936F937F938F939F93AF9368
:10381000BF93EF93FF9348EA50E064EA70E083E0DF
:1038200090E00E94BB05FF91EF91BF91AF919F91F6
:103830008F917F916F915F914F913F912F910F9059
:103840000BBE0F900FBE0F901F9018951F920F92F6
:103850000FB60F9211240BB60F922F933F934F93F5
:103860005F936F937F938F939F93AF93BF93EF93E8
:10387000FF9348E950E064E970E082E090E00E9444
:10388000BB05FF91EF91BF91AF919F918F917F9178
:103890006F915F914F913F912F910F900BBE0F90C1
:1038A0000FBE0F901F9018951F920F920FB60F9298
:1038B00011240BB60F922F933F934F935F936F9307
:1038C0007F938F939F93AF93BF93EF93FF9348E8BA
:1038D00050E064E870E081E090E00E94BB05FF9159
:1038E000EF91BF91AF919F918F917F916F915F9178
:1038F0004F913F912F910F900BBE0F900FBE0F90E5
:103900001F901895109248031092470348EE53E019
:1039100060E070E04093490350934A0360934B0387
:1039200070934C0382E292E09093460380934503A8
:103930002DEC30E030935203209351032CEC30E017
:10394000309354032093530328EC30E03093560314
:103950002093550329EC30E030935803209357030C
:103960002AEC30E030935A03209359032EEC30E0D8
:1039700030935C0320935B0310925E0310925F030D
:1039800010926003109261031092E5031092E40319
:103990004093E6035093E7036093E8037093E903D1
:1039A0009093E3038093E20385EC90E09093EF0320
:1039B0008093EE0384EC90E09093F1038093F00306
:1039C00080EC90E09093F3038093F20381EC90E01D
:1039D0009093F5038093F40382EC90E09093F703C7
:1039E0008093F60386EC90E09093F9038093F803BC
:1039F0001092FB031092FC031092FD031092FE0341
:103A000080910F05803378F591E0980F90930F0522
:103A10008093230590E0FC01EE0FFF1FE80FF91FD4
:103A2000E158FB4F88EB9BE09283818385E1809393
:103A300015058BE080931605E7EBF2E0E491E09347
:103A40001705E1E7F2E0E491E093180580E89EE3D2
:103A5000A0E0B0E080931D0590931E05A0931F0584
:103A6000B093200508958FEF80932305DFCF7894DE
:103A700084B5826084BD84B5816084BD85B5826073
:103A800085BD85B5816085BD80916E008160809324
:103A90006E0010928100809181008260809381008D
:103AA000809181008160809381008091800081609D
:103AB000809380008091B10084608093B1008091F8
:103AC000B00081608093B00080919100826080930B
:103AD000910080919100816080939100809190008D
:103AE0008160809390008091A10082608093A1000A
:103AF0008091A10081608093A1008091A0008160ED
:103B00008093A000809121018260809321018091A7
:103B10002101816080932101809120018160809347
:103B2000200180917A00846080937A0080917A00ED
:103B3000826080937A0080917A00816080937A001D
:103B400080917A00806880937A001092C10085E4A9
:103B500093E00E94A80182EE93E00E94A80162E037
:103B6000809115050E9493022FB7F894809141032C
:103B700090914203A0914303B09144032FBF805D15
:103B80009740A109B1098093190590931A05A09354
:103B90001B05B0931C0587E38093220580912305C4
:103BA000803308F051C061E089E00E949302809167
:103BB0002305282F30E0F901EE0FFF1FE20FF31F5E
:103BC000E158FB4F9081907C99609083109224057E
:103BD000109225052CE0622F0E949520829FB00153
:103BE000112430E020E0AB01420F531FFA01EE0F29
:103BF000FF1FE40FF51FE158FB4F908196FD16C0A3
:103C00002F5F3F4F2C30310571F7813071F51092E5
:103C1000800082E0809381001092850010928400E1
:103C2000B19A80916F00826080936F00E0912305CC
:103C30008E2F90E0FC01EE0FFF1FE80FF91FE158F7
:103C4000FB4F80818064808361E087E00E94930263
:103C500061E086E00E94930261E085E00E949302A9
:103C60000E9497150E948E05FBCF823061F410925E
:103C7000900080939100109295001092940088BB60
:103C800080937100D3CF833069F41092A00082E05A
:103C90008093A1001092A5001092A40089BB80938C
:103CA0007200C4CF8111C2CF1092200182E08093B4
:103CB000210110922501109224018ABB8093730088
:103CC000B5CF0E94A31E08F481E00895E89409C0CE
:103CD00097FB3EF490958095709561957F4F8F4F3F
:103CE0009F4F9923A9F0F92F96E9BB279395F69555
:103CF000879577956795B795F111F8CFFAF4BB0FD3
:103D000011F460FF1BC06F5F7F4F8F4F9F4F16C036
:103D1000882311F096E911C0772321F09EE8872FC0
:103D2000762F05C0662371F096E8862F70E060E07C
:103D30002AF09A95660F771F881FDAF7880F9695F5
:103D4000879597F90895990F0008550FAA0BE0E899
:103D5000FEEF16161706E807F907C0F0121613064D
:103D6000E407F50798F0621B730B840B950B39F48D
:103D70000A2661F0232B242B252B21F408950A26F3
:103D800009F4A140A6958FEF811D811D08950E9421
:103D9000DA1E0C944B1F0E943D1F38F00E94441FF6
:103DA00020F0952311F00C94341F0C943A1F112429
:103DB0000C947F1F0E945C1F70F3959FC1F3950FB9
:103DC00050E0551F629FF001729FBB27F00DB11D9F
:103DD000639FAA27F00DB11DAA1F649F6627B00D2F
:103DE000A11D661F829F2227B00DA11D621F739F18
:103DF000B00DA11D621F839FA00D611D221F749F26
:103E00003327A00D611D231F849F600D211D822F6C
:103E1000762F6A2F11249F5750409AF0F1F0882393
:103E20004AF0EE0FFF1FBB1F661F771F881F9150C0
:103E30005040A9F79E3F510580F00C94341F0C941C
:103E40007F1F5F3FE4F3983ED4F38695779567959F
:103E5000B795F795E7959F5FC1F7FE2B880F911DEA
:103E60009695879597F9089597F99F6780E870E090
:103E700060E008959FEF80EC089500240A941616E0
:103E8000170618060906089500240A941216130648
:103E9000140605060895092E0394000C11F48823D6
:103EA00052F0BB0F40F4BF2B11F460FF04C06F5FF2
:103EB0007F4F8F4F9F4F089557FD9058440F551FC8
:103EC00059F05F3F71F04795880F97FB991F61F09C
:103ED0009F3F79F087950895121613061406551F13
:103EE000F2CF4695F1DF08C0161617061806991F7F
:103EF000F1CF86957105610508940895E894BB2774
:103F000066277727CB0197F90895052E97FB1EF4B6
:103F100000940E949C1F57FD07D00E94B71F07FC0A
:103F200003D04EF40C949C1F5095409530952195EC
:103F30003F4F4F4F5F4F08959095809570956195D5
:103F40007F4F8F4F9F4F08950E94D91FA59F900DBF
:103F5000B49F900DA49F800D911D11240895B7FF6B
:103F60000C94A41F0E94A41F821B930B0895A1E22E
:103F70001A2EAA1BBB1BFD010DC0AA1FBB1FEE1FE3
:103F8000FF1FA217B307E407F50720F0A21BB30B2E
:103F9000E40BF50B661F771F881F991F1A9469F7AA
:103FA00060957095809590959B01AC01BD01CF0106
:103FB0000895A29FB001B39FC001A39F700D811D02
:103FC0001124911DB29F700D811D1124911D089522
:103FD0005058BB27AA270E9400200C944B1F0E9418
:103FE0003D1F38F00E94441F20F039F49F3F19F420
:103FF00026F40C943A1F0EF4E095E7FB0C94341F62
:10400000E92F0E945C1F58F3BA17620773078407F1
:10401000950720F079F4A6F50C947E1F0EF4E09538
:104020000B2EBA2FA02D0B01B90190010C01CA0172
:10403000A0011124FF27591B99F0593F50F4503E1D
:1040400068F11A16F040A22F232F342F4427585F0F
:10405000F3CF469537952795A795F0405395C9F727
:104060007EF41F16BA0B620B730B840BBAF09150DF
:10407000A1F0FF0FBB1F661F771F881FC2F70EC07E
:10408000BA0F621F731F841F48F487957795679551
:10409000B795F7959E3F08F0B0CF9395880F08F03D
:1040A0009927EE0F9795879508950E945C20689454
:1040B000B1110C947F1F08950E94641F88F09F57D0
:1040C00098F0B92F9927B751B0F0E1F0660F771F3C
:1040D000881F991F1AF0BA95C9F714C0B13091F032
:1040E0000E947E1FB1E008950C947E1F672F782FE9
:1040F0008827B85F39F0B93FCCF3869577956795F7
:10410000B395D9F73EF490958095709561957F4F62
:104110008F4F9F4F08950E94A31E08F48FEF0895BC
:104120000E94A31E880B990B0895991B79E004C087
:10413000991F961708F0961B881F7A95C9F78095E6
:104140000895AA1BBB1B51E107C0AA1FBB1FA617DE
:10415000B70710F0A61BB70B881F991F5A95A9F730
:1041600080959095BC01CD010895EE0FFF1F881F2B
:104170008BBF0790F691E02D19940E94D91FB7FFCD
:104180000895821B930B08950F931F93CF93DF9392
:104190008230910510F482E090E0E0912805F091E2
:1041A000290530E020E0B0E0A0E0309799F4211537
:1041B000310509F44AC0281B390B24303105D8F5E4
:1041C0008A819B816115710589F1FB01938382834B
:1041D000FE0111C0408151810281138148175907A6
:1041E000E0F04817590799F4109761F012960C9374
:1041F000129713961C933296CF01DF91CF911F91A6
:104200000F9108950093280510932905F4CF2115E7
:10421000310551F04217530738F0A901DB019A012B
:10422000BD01DF01F801C1CFEF01F9CF909329055E
:1042300080932805CDCFFE01E20FF31F8193919368
:104240002250310939832883D7CF20912605309118
:104250002705232B41F4209104023091050230936D
:104260002705209326052091020230910302211593
:10427000310541F42DB73EB7409106025091070237
:10428000241B350BE0912605F0912705E217F30773
:10429000A0F42E1B3F0B2817390778F0AC014E5FB6
:1042A0005F4F2417350748F04E0F5F1F50932705C7
:1042B00040932605819391939FCFF0E0E0E09CCF5F
:1042C000CF93DF930097E9F0FC01329713821282BB
:1042D000A0912805B0912905ED0130E020E010976C
:1042E000A1F420813181820F931F20912605309106
:1042F00027052817390709F061C0F0932705E093D7
:104300002605DF91CF910895EA01CE17DF07E8F582
:104310004A815B819E0141155105B1F7E901FB839B
:10432000EA8349915991C40FD51FEC17FD0761F439
:10433000808191810296840F951FE901998388837A
:10434000828193819B838A83F0E0E0E012968D91D5
:104350009C9113970097B9F52D913C911197CD0140
:104360000296820F931F209126053091270528176A
:10437000390739F6309751F5109229051092280522
:10438000B0932705A0932605BCCFD383C283408179
:104390005181840F951FC817D90761F44E5F5F4F95
:1043A00088819981480F591F518340838A819B815D
:1043B000938382832115310509F0B0CFF09329054D
:1043C000E09328059ECFFD01DC01C0CF138212824D
:1043D000D7CF4F925F926F927F928F929F92AF92C0
:1043E000BF92CF92DF92EF92FF920F931F93CF93E2
:1043F000DF938C01009799F4CB01DF91CF911F914E
:104400000F91FF90EF90DF90CF90BF90AF909F9073
:104410008F907F906F905F904F900C94C420FC0120
:10442000E60FF71F9C0122503109E217F30708F449
:10443000AEC0D901CD91DC911197C617D70720F1F5
:10444000C530D10578F0CE0104978617970750F054
:10445000C61BD70B2297C193D1936D937C93CF0149
:104460000E946021C801DF91CF911F910F91FF90B1
:10447000EF90DF90CF90BF90AF909F908F907F9004
:104480006F905F904F9008955B01AC1ABD0A4C018C
:104490008C0E9D1EA0912805B0912905512C412C10
:1044A000F12CE12C109731F580912605909127058C
:1044B0008815990509F05CC04616570608F058C0E3
:1044C0008091020290910302009741F48DB79EB74C
:1044D0004091060250910702841B950BE817F907DB
:1044E00008F055C0F0932705E0932605F901718384
:1044F0006083B8CF8D919C91119712966C90129712
:1045000013967C901397A815B90559F56C0142E0F4
:10451000C40ED11CCA14DB0420F1AC014A195B099A
:10452000DA011296159780F062827382518340837C
:10453000D9016D937C93E114F10471F0D7011396C6
:10454000FC93EE9312978ECF22968C0F9D1FF9014C
:1045500091838083F301EFCFF0932905E093280541
:1045600081CF4816590608F42C017D01D3019ACF5A
:10457000CB010E94C4207C01009749F0AE01B80134
:104580000E94CA22C8010E94602187016BCF10E0FF
:1045900000E068CFFB01DC0102C001900D924150A8
:1045A0005040D8F70895FB01DC0101900D920020E6
:0845B000E1F70895F894FFCF34
:1045B8000C0200002A05800000000000BD1A7911D5
:1045C8007511FC02FF020A031A03270330030000D7
:1045D8000000210541046E046E05DF047D04D1044A
:1045E8002F2F272722225C5C6208660C6E0A720D48
:1045F8007409000D0A005C7530303030006E756C3F
:104608006C00747275650066616C7365004448548B
:104618002073656E736F72207265616420666169CC
:104628006C656421006E6F64650074656D706572F9
:1046380061747572650068756D6964697479007371
:104648006572766F5F736572766F416E676C650031
:104658006C6472004E6F646520312053656E743A45
:1046680020004E6F646520322050617273652045CA
:1046780072726F723A2000737461727400646972A6
:10468800007370656564004E6F6465203220446174
:1046980074613A200053746172743D002C2044699F
:1046A800723D002C2053706565643D004F6B0045DA
:1046B8006D707479496E70757400496E636F6D70B2
:1046C8006C657465496E70757400496E76616C69C5
:1046D80064496E707574004E6F4D656D6F72790028
:0846E800546F6F44656570001A
:00000001FF
