:020000040000FA
:100000000C9475010C94A6010C94A6010C94A60105
:100010000C94A6010C94A6010C94A6010C94A601C4
:100020000C94A6010C94A6010C94A6010C94A601B4
:100030000C94A6010C94A6010C94A6010C94A601A4
:100040000C94A6010C940C180C94A6010C94A60117
:100050000C94A6010C94A6010C94A6010C9478169D
:100060000C94A6010C944C170C9422170C94A60126
:100070000C94A6010C94A6010C94A6010C94A60164
:100080000C94DE170C94A6010C94A6010C94A60106
:100090000C94EC160C94C2160C94A6010C94A601B8
:1000A0000C94A6010C94A6010C94B0170C94A60114
:1000B0000C94A6010C94A6010C94A6010C94821732
:1000C0000C94A6010C94A6010C94A6010C94A60114
:1000D0000C94A6010C94A6010C94A6010C94A60104
:1000E0000C94A6010C94D31D0C943A020C94520269
:1000F0000C941E1E0C9425020C94B91D0C94A01D8A
:100100000C942B020C9489040C9498040C9489058B
:100110000C9460020C94141E0C94A51D0C940A1EE1
:100120000C9458020C9466020C945C020C944E02DF
:100130000C94281E0C94E71D0C94001E0C94EC04E7
:100140000C944A020C94DD1D0C9414110C94C31DE4
:100150000C94F11D0C949B1D0C943C050C944002D6
:100160000C9433020C943A180C943F110C942F0207
:100170000C9437020C9475160C94321E0C94FA04ED
:100180000C9465020C94AF1D0C945C040C94CB1D74
:100190000C946A020C944402000021002400270001
:1001A0002A002D0030003300010100000401070186
:1001B0000A0100002200250028002B002E0031003B
:1001C000340002010000050108010B0100000A0BC8
:1001D00002090C0D0E0807030401000000000000D6
:1001E000000000000000000000000000000000000F
:1001F00000000000000000001211100000000000CC
:1002000000000000000000000000000000000000EE
:100210000000000020002300260029002C002F00F1
:10022000320000010000030106010901CDCCCC3DE4
:100230000AD7233C17B7D13877CC2B329595E624D3
:100240001FB14F0A000020410000C84200401C4678
:1002500020BCBE4CCA1B0E5AAEC59D7405050505D3
:10026000070508080808020202020A0A080804042E
:10027000040401010101010101010303030303035C
:100280000303040707070C0C0C0C0C0C0C0C0202EB
:10029000020206060606060606060B0B0B0B0B0BE8
:1002A0000B0B010210202008081020401020408075
:1002B000020102010804020101020408102040802A
:1002C00080402010080402018004020180402010B8
:1002D0000804020108040201010204081020408001
:1002E00001020408102040803A1811241FBECFEFED
:1002F000D1E2DEBFCDBF00E00CBF13E0A0E0B2E072
:10030000ECE9F5E400E00BBF02C007900D92AA35BE
:10031000B107D9F725E0AAE5B3E001C01D92AC34DE
:10032000B207E1F711E0C5E7D1E000E006C0219790
:100330000109802FFE010E94A720C437D10780E069
:100340000807A9F70E94EF180C94CC220C94000027
:10035000FC01A089B18982E08C93A485B5851C92AB
:10036000A685B7858FEC8C93108EA489B58986E01D
:100370008C93A289B3898C9180618C93A289B38973
:100380008C9188608C93A289B3898C9180688C93BE
:100390000288F389E02D80818F7D80830895CF923C
:1003A000DF92EF92FF92CF93DF93B0913905A0E0F7
:1003B0008111AB2F80913A0590E0880F991FAC0115
:1003C0004E5E5D4FC0903F05D0904005E0904105E6
:1003D000F090420530E020E0FA01C591D491E88127
:1003E000B90190E080E0EB23EA130AC02F5F3F4F92
:1003F0006C157D058E059F0578F36FEF7FEFCB01C0
:10040000DF91CF91FF90EF90DF90CF9008958150D2
:10041000823108F05AC0E82FF0E08827ED5EFD4FEA
:100420008F4F0C94A7203302370225022B022F0294
:1004300065023A02400244024A024E025202580247
:100440005C026502600266026A02809180008F771A
:10045000809380000895809180008F7DF9CF8091F6
:100460008000877FF5CF84B58F7784BD089584B5EC
:100470008F7DFBCF8091B0008F778093B00008957F
:100480008091B0008F7DF9CF809190008F7780931D
:1004900090000895809190008F7DF9CF8091900019
:1004A000877FF5CF8091A0008F778093A00008957B
:1004B0008091A0008F7DF9CF8091A000877FF5CF3C
:1004C000809120018F7780932001089580912001F1
:1004D0008F7DF9CF80912001877FF5CFCF93DF9378
:1004E000282F30E0F901E453FE4F8491F901EE55D5
:1004F000FD4FD491F901E45AFD4FC491CC23A1F0F2
:1005000081110E940702EC2FF0E0EE0FFF1FEE5E5C
:10051000FD4FA591B491EC91ED2381E090E009F4B9
:1005200080E0DF91CF91089580E090E0FACF1F93B3
:10053000CF93DF93282F30E0F901E453FE4F8491ED
:10054000F901EE55FD4FD491F901E45AFD4FC491E4
:10055000CC23A9F0162F81110E940702EC2FF0E0A6
:10056000EE0FFF1FEE54FE4FA591B4918FB7F89494
:10057000EC91111108C0D095DE23DC938FBFDF9181
:10058000CF911F910895DE2BF8CFCF93DF9390E0AA
:10059000FC01EE55FD4F2491845A9D4FFC0184913E
:1005A0008823D1F090E0880F991FFC01E856FE4F98
:1005B000A591B491FC01EE54FE4FC591D4916230E7
:1005C00071F49FB7F8943C91822F809583238C938C
:1005D000E8812E2B28839FBFDF91CF9108958FB79D
:1005E000F894EC912E2B2C938FBFF6CF3FB7F89455
:1005F00080915F0390916003A0916103B0916203C9
:1006000026B5A89B05C02F3F19F00196A11DB11D6D
:100610003FBFBA2FA92F982F8827BC01CD01620FA9
:10062000711D811D911D42E0660F771F881F991F64
:100630004A95D1F708958F929F92AF92BF92CF9231
:10064000DF92EF92FF924B015C010E94F6026B0178
:100650007C010E94F6026C197D098E099F09683E93
:10066000734081059105A8F321E0821A9108A10841
:10067000B10888EEC80E83E0D81EE11CF11C81147D
:100680009104A104B10429F7FF90EF90DF90CF907F
:10069000BF90AF909F908F900895CF92DF92EF928E
:1006A000FF920F931F93CF93DF93CDB7DEB7C05464
:1006B000D1400FB6F894DEBF0FBECDBF2FB7F89470
:1006C0008091630390916403A0916503B0916603E8
:1006D0002FBF40913B0550913C0560913D057091C5
:1006E0003E058C019D01041B150B260B370BB90130
:1006F000A801403D57406105710590F48091430584
:10070000C05CDE4F0FB6F894DEBF0FBECDBFDF91E9
:10071000CF911F910F91FF90EF90DF90CF900895B0
:1007200080933B0590933C05A0933D05B0933E0517
:10073000109236051092350510923405109233054B
:100740001092320562E0809137050E94C50261E097
:1007500070E080E090E00E941B0361E0809137052B
:100760000E94C50260E0809137050E949702809147
:1007700038058551823020F58BE291E10197F1F740
:1007800062E0809137050E94C5028091440590E0A7
:100790008230910538F0880F991F880F991F0597AF
:1007A0000197F1F7F89480E00E94CF016F3F7F4FEF
:1007B0008F4F9F4F61F410924305789480E0A0CF53
:1007C00064E170E080E090E00E941B03D9CF81E0FB
:1007D0000E94CF016F3F7F4F8F4F9F4F61F38E017C
:1007E0000F5F1F4F6E018FEBC81A8EEFD80A78018A
:1007F00080E00E94CF01F70160837183828393833D
:1008000081E00E94CF01F70164837583868397831B
:10081000F8E0EF0EF11CEC14FD0451F7789430E091
:1008200020E0F801C080D180E280F38044815581CE
:1008300066817781FFEFCF16DF06EF06FF0631F006
:100840004F3F8FEF58076807780719F41092430558
:10085000B5CFF90183E0F595E7958A95E1F7EE5C70
:10086000FA4F8081880FC416D506E606F70610F108
:1008700080832F5F3F4F085F1F4F2832310589F675
:10088000409136052091320580913305280F33279A
:10089000331F80913405280F311D80913505820F5B
:1008A000932F911D99274817190681F681E08093AF
:1008B000430526CF8160DCCFAF92BF92CF92DF920B
:1008C000EF92FF920F931F93CF93DF936C017B0105
:1008D0008B01040F151FEB015E01AE18BF08C01796
:1008E000D10759F06991D601ED91FC910190F08109
:1008F000E02DC6011995892B79F7C501DF91CF91BC
:100900001F910F91FF90EF90DF90CF90BF90AF902D
:100910000895FC01538D448D252F30E0842F90E005
:10092000821B930B541710F0CF96089501970895EA
:10093000FC01918D828D981761F0A28DAE0FBF2FB3
:10094000B11D5D968C91928D9F5F9F73928F90E009
:1009500008958FEF9FEF08952FB7F8948091630368
:1009600090916403A0916503B09166032FBF8093BB
:100970006F0390937003A0937103B093720387E6A3
:1009800093E00E94980497FF26C02FB7F8948091B7
:10099000630390916403A0916503B09166032FBF38
:1009A00040916F03509170036091710370917203D5
:1009B000841B950BA60BB70B40916B0350916C03F6
:1009C00060916D0370916E0384179507A607B707B2
:1009D000B0F28FEF9FEF0895FC01918D828D9817F3
:1009E00031F0828DE80FF11D858D90E008958FEF35
:1009F0009FEF0895FC01918D228D892F90E0805CFE
:100A00009F4F821B91098F739927089587E693E082
:100A10000E94FA0421E0892B09F420E0822F089536
:100A200084E094E00E94FA0421E0892B09F420E09C
:100A3000822F0895FC01A48DA80FB92FB11DA35AD0
:100A4000BF4F2C91848D90E001968F739927848FEE
:100A5000A689B7892C93A089B1898C918370806411
:100A60008C93938D848D981306C00288F389E02DB2
:100A700080818F7D80830895EF92FF920F931F9363
:100A8000CF93DF93EC0181E0888F9B8D8C8D981341
:100A90001AC0E889F989808185FF15C09FB7F8944D
:100AA000EE89FF896083E889F98980818370806499
:100AB00080839FBF81E090E0DF91CF911F910F91E4
:100AC000FF90EF900895F62E0B8D10E00F5F1F4FF3
:100AD0000F731127E02E8C8D8E110CC00FB607FC02
:100AE000FACFE889F989808185FFF5CFCE010E9490
:100AF0001A05F1CFEB8DEC0FFD2FF11DE35AFF4FDF
:100B0000F0829FB7F8940B8FEA89FB89808180621D
:100B1000CFCFCF93DF93EC01888D8823B9F0AA89DA
:100B2000BB89E889F9898C9185FD03C0808186FDA8
:100B30000DC00FB607FCF7CF8C9185FFF2CF8081F7
:100B400085FFEDCFCE010E941A05E9CFDF91CF914D
:100B5000089580E090E0892B29F00E941005811112
:100B60000E94000080E090E0892B29F00E94060599
:100B700081110E94000080E090E0892B49F080E024
:100B800090E0892B29F00E94000081110E94000052
:100B900080E090E0892B49F080E090E0892B29F0FB
:100BA0000E94000081110C9400000895AF92BF9242
:100BB000CF92DF92EF92FF920F931F93CF93DF9329
:100BC0006B017A01EC01C65ADC4F28813CE0389F6A
:100BD0008001399F100D1124A0903105B12C27FF01
:100BE0001FC0FB011182108288818F5F88838881FA
:100BF0009801280F311D87FD3A95F6012A153B050E
:100C00001CF488818C30C4F18081918104968034F9
:100C10009C4908F473C0F60180819181049670C0EC
:100C200088819801280F311D87FD3A952A153B05CB
:100C3000DCF68881A801480F511D87FD5A95FA01FD
:100C4000EE0FFF1FE40FF51FEF55FB4F808186FF6E
:100C5000CBCF8881F801E80FF11D87FDFA95CF0110
:100C6000EE0FFF1FE80FF91FEF55FB4F808160E08B
:100C70008F730E949702B8CF808191812881A8014B
:100C8000420F511D27FD5A959A01FA01EE0FFF1FE1
:100C9000E20FF31FEF55FB4F21813281820F931F2B
:100CA000F7019183808388819801280F311D87FD8A
:100CB0003A95F901EE0FFF1FE20FF31FEF55FB4FBF
:100CC000808186FF22C08881080F111D87FD1A953B
:100CD000F801EE0FFF1FE00FF11FEF55FB4F808172
:100CE00061E08F73DF91CF911F910F91FF90EF9093
:100CF000DF90CF90BF90AF900C94970280E49CE976
:100D0000F701918380838FEF8883DF91CF911F91CB
:100D10000F91FF90EF90DF90CF90BF90AF9008952C
:100D20006F3FA9F0E62FE295EF7044E0E49F900159
:100D30001124DC01ED91FC91E20FF31F6F708281B1
:100D40009381B6E06B9F800D911D1124089590E072
:100D500080E00895982F80336CF08A3324F08F352B
:100D600024F08B3724F481E0089581341CF081E075
:100D70009B350CF080E00895FC018485811114C03E
:100D8000A781B085818592852FEF3FEFA817B9071E
:100D900030F4CD010196908787832C9130E037FDA8
:100DA00020E0238781E08487838508951F93CF9374
:100DB000DF93EC01162F0E94BC06811306C01C862F
:100DC00081E0DF91CF911F91089580E0FACF0F93DA
:100DD0001F93CF93DF938C01EB018991882369F0F6
:100DE000C8010E94BC06882379F0FE0131979081EA
:100DF00098130DC0F8011486F0CF90E080E0DF91E9
:100E0000CF911F910F91089582E090E0F8CF83E099
:100E100090E0F5CFCF93DF93EC01CE010E94BC06AA
:100E20008B304CF489305CF4882359F081E08E8358
:100E300090E080E00BC08D3011F08032B9F71C8655
:100E4000ECCF8E81811105C081E090E0DF91CF91E0
:100E5000089582E090E0FACFFC01A281B381808105
:100E6000918130E020E0A817B90738F4CD01019650
:100E7000938382836C9321E030E084819581820F9B
:100E8000931F958384830895CF93DF93FC01828120
:100E90009381EB01460F571FA281B38120813181DD
:100EA000A217B30758F4C417D50741F02991BD0123
:100EB0006F5F7F4F738362832C93EECFA81BB90BB8
:100EC00084819581A80FB91FB583A483DF91CF9149
:100ED00008958F929F92AF92BF92CF92DF92EF923E
:100EE000FF920F931F93CF93DF93CDB7DEB7669733
:100EF0000FB6F894DEBF0FBECDBF6C018E01095E48
:100F00001F4F78018AE0882E912CA12CB12CCB01A7
:100F1000BA01A50194010E94A91F942F852F605D3D
:100F2000F80162938F01A901692F782F41155105AE
:100F30006105710561F7A7014E1B5F0BBF01C6017B
:100F40000E94440766960FB6F894DEBF0FBECDBF71
:100F5000DF91CF911F910F91FF90EF90DF90CF9095
:100F6000BF90AF909F908F900895CF93DF93DB0158
:100F7000FC01808191810097E1F012962C911297EB
:100F800013964C911397342F3F77FC0143814217FE
:100F9000130671F7ED91FC911197EC0124962E0F39
:100FA0003F1FE217F30729F0519149915417C9F3F4
:100FB000DFCFDF91CF910895DC0152969C9152973B
:100FC000915084E0989F900111245096ED91FC91EE
:100FD000E20FF31F228133812115310579F0418120
:100FE0008081481758F481E0840F818386E0489F10
:100FF000200D311D11242115310521F460E070E030
:101000008FEF0895B901892F8295807F840F08950D
:10101000DF92EF92FF920F931F93CF93DF93EC0138
:101020007B01D12C688979898A89D816E0F484E01B
:10103000D89E80011124060F171FD80112966D91BA
:101040007C916115710541F0D701ED91FC91028011
:10105000F381E02DC7011995F801138212821082E5
:101060001182D394DFCF1A8A8FEF8C8BC617D707E4
:1010700061F0D701ED91FC910280F381E02DC70171
:101080001995D98BC88B84E08B8BDF91CF911F9101
:101090000F91FF90EF90DF9008954F925F926F92C3
:1010A0007F928F929F92AF92BF92CF92DF92EF92F8
:1010B000FF920F931F93CF93DF9300D01F921F9245
:1010C000CDB7DEB7DC012C912B32E1F12D32D9F511
:1010D0000196EE24E394FC01208130ED320F3A308A
:1010E00010F02E3291F58C0160E070E0CB01F80138
:1010F000219130ED832E820E39E0381508F444C07A
:101100006A3949E97407840749E1940708F046C041
:10111000AAE0B0E09B01AC010E94961F912CB12C7B
:10112000A12C24013501409450946094709446168B
:1011300057066806790690F1680D791D8A1D9B1D7A
:101140008F01D5CF0196E12CC6CF198229813A8132
:101150004B815C816D8170E080E090E00F900F909A
:101160000F900F900F90DF91CF911F910F91FF90F3
:10117000EF90DF90CF90BF90AF909F908F907F9037
:101180006F905F904F900895211108C0EE2051F1AB
:1011900061307105810550E89507A0F0F12CBAE0A7
:1011A0008B2E912CA12CB12C6115710530E8830791
:1011B0009105F8F0A50194010E94A91FCA01B90187
:1011C000F394F2CF22E029839B01AC018827992771
:1011D000DC01821B930BA40BB50B8A839B83AC832E
:1011E000BD83B4CF23E029836A837B838C839D8373
:1011F000ADCFF801D8012D918D0130ED320F3A308D
:1012000010F4F394F6CF2E3201F58F010F5F1F4FCC
:10121000F8010F5F1F4F2081A0EDDA2ED20EB9E04A
:10122000BD1598F06C3CECEC7E07ECE08E07910568
:1012300078F7AAE0B0E09B01AC010E94961F6D0D0B
:10124000711D811D911DFA94E3CF20812F7D10E047
:1012500000E0253409F050C021812D32B1F53296DD
:10126000CC24C394DF0110E000E02F2D0F2C000CE4
:10127000330B5AE0B52EFD01DD9040ED4D0D4A30A7
:10128000B0F5B09EA001B19E500D11240D2DDD0CC6
:10129000110B00531109040F151FA801420F531F12
:1012A0004732510544F3CC20B9F080E090E0A0E053
:1012B000B0E8E11003C080E090E0DC0121E0298388
:1012C0008A839B83AC83BD8341CF2B3219F0319647
:1012D000C12CC8CF3296FCCF80E090E0A0E8BFEFF1
:1012E000E110ECCF80E090E0A0E8BFE7E7CFCC20B2
:1012F00019F01195019511092081211126CF0F0DAB
:10130000111DF7FC1A950E94581E34E4C32E32E0DA
:10131000D32E101611063CF01195019511094CE2DF
:10132000C42E42E0D42EF12C0115110591F000FFDE
:101330000CC024E0F29EF0011124EC0DFD1D25915E
:101340003591459154910E94B91E15950795F394D6
:10135000EBCFE110905821E029836A837B838C8353
:101360009D83F4CEDB01ED91FC9111970280F38116
:10137000E02DBC01CD011994AF92BF92CF92DF92C4
:10138000EF92FF920F931F93CF93DF93EC018B01AA
:101390008C8180FF24C0A881B981FB018381948165
:1013A00030E020E00097D9F0A817B907D1F5F8018F
:1013B0006081718112968C911297815012968C9354
:1013C000129781110CC08D919C91119721153105B7
:1013D00029F1F90191838083CD010E94B2098C81AA
:1013E000807631F1209721F1F8805801F5E1AF0EB8
:1013F000B11C8FEFF816D1F06F2DC5010E94900639
:101400006C01FC01E580B8010E94BC09F801818DE6
:10141000F6018083F801F18EFE2CEBCF9483838359
:10142000DBCF9C01FC0180819181BCCFF882F982E5
:101430001C82DF91CF911F910F91FF90EF90DF9071
:10144000CF90BF90AF9008950F931F93CF93DF93EA
:10145000EC01088119818B819C81009749F0FC0186
:10146000208131813C832B83B8010E94B209F3CFE4
:1014700068817981CE010596DF91CF911F910F91FF
:101480000C940808EF92FF920F931F93CF93DF9372
:101490007C018B01EA016F3F710509F0B0F4E8812E
:1014A000F9810480F581E02DAB014B5F5F4FBC01FA
:1014B000CE011995009749F0FC010383DF91CF918C
:1014C0001F910F91FF90EF900895E881F9810280BC
:1014D000F381E02DB701CE01199590E080E0EECFC9
:1014E000FF920F931F93CF93DF93EC01F62E8A8127
:1014F0009B810097C9F06C817D81FC0123812617B7
:10150000170691F408811981F80140815181660F15
:10151000771F6F5F7F4F0E94420A009719F421E006
:10152000F80122839B838A838A819B81009759F0EB
:101530002C813D81A9014F5F5F4F5D834C83820FFA
:10154000931FFC01F482DF91CF911F910F91FF90C7
:1015500008959F92AF92BF92CF92DF92EF92FF9247
:101560000F931F93CF93DF9300D01F921F92CDB79D
:10157000DEB78C010E94BC06D82EF8011486F12C2F
:10158000E12C60EFC62EC8010E94BC06F80114864B
:10159000D81609F4B3C0811113C082E090E00F9017
:1015A0000F900F900F900F90DF91CF911F910F919F
:1015B000FF90EF90DF90CF90BF90AF909F900895F5
:1015C0008C3509F099C0C8010E94BC06882329F314
:1015D000E0E3F2E0853709F083C0F801148654E0B7
:1015E000952EB12CA12CC8010E94BC068823A9F21B
:1015F000813434F48053803130F083E090E0CFCFF9
:101600008F7D8753F8CF44E0AA0CBB1C4A95E1F7C5
:10161000A82AF80114869A949110E5CFC501985D27
:101620008115944020F47501F3E0FF22ACCFC50191
:101630009C5D81159440A8F483E0B822B701762F11
:101640006627770F770F6A297B2990E080E0019663
:10165000603871058105910540F4C8010E94700A47
:1016600092CFB50190E080E0F3CF1982262F2F733F
:1016700020682A8326E096958795779567952A9521
:10168000D1F76032710580F4606C6B835E01E4E039
:10169000AE0EB11CF50162915F01662309F473CFB0
:1016A000C8010E94700AF6CF262F2F7320682B8363
:1016B00086E0769567958A95E1F76031710538F493
:1016C000606E6C835E01F5E0AF0EB11CE3CF606825
:1016D0006C83CD825E0126E0A20EB11CDBCF329678
:1016E0009081992309F489CF8913F9CF81818823C7
:1016F00009F483CFF8011486682FAFCF82819381DC
:10170000892B19F484E090E04ACF90E080E047CF45
:10171000AF92BF92CF92DF92EF92FF920F931F93FF
:10172000CF93DF9300D01F92CDB7DEB78C01DC01E1
:101730001296ED91FC91139714968D919C911597AB
:10174000E80FF91F1482ED90FC9011971496AC905D
:1017500014971596BC9015971296CD90DC90C60103
:1017600004969A838983AB828B2D8F778C83BE01FD
:101770006F5F7F4FC70103960E94B507009749F539
:10178000F70140815181B501C6010E94420A0097CC
:1017900021F421E0D70112962C93D801ED91FC9110
:1017A00023813481DC012D933C9394838383F8015E
:1017B000138212820F900F900F900F90DF91CF91B4
:1017C0001F910F91FF90EF90DF90CF90BF90AF905F
:1017D0000895DC0112962C9112972F5F12962C938C
:1017E000E9CFCF93DF93EC01CB01CF3FD10509F0D7
:1017F000B0F4BE016B5F7F4F6C177D0780F0DC019A
:10180000ED91FC910190F081E02D1995009721F068
:10181000FC01C38321E02283DF91CF91089590E002
:1018200080E0FACFFB0101900020E9F73197AF018A
:10183000461B570B0C945C048F929F92AF92BF9201
:101840000F931F93CF93DF93CDB7DEB7A1970FB65A
:10185000F894DEBF0FBECDBF19A2423008F44AE0B3
:101860008E010F5D1F4F842E912CB12CA12CA50150
:1018700094010E94A91FE62FB901CA01EA3004F5BC
:10188000E05DD801EE938D01232B242B252B79F7D6
:1018900090E080E0109729F0BD0184E094E00E9480
:1018A000120CA1960FB6F894DEBF0FBECDBFDF912C
:1018B000CF911F910F91BF90AF909F908F900895FF
:1018C000E95CDFCFCF92DF92EF92FF92CF93DF936D
:1018D0006B017C016DE284E094E00E943C05EC0128
:1018E00066277727CB016C197D098E099F094AE08D
:1018F0000E941C0C8C0F9D1FDF91CF91FF90EF90E9
:10190000DF90CF9008950F931F93CF93DF938C01B7
:10191000D0E0C0E06115710519F00E94120CEC01D5
:1019200063E472E0C8010E94120C8C0F9D1FDF91CE
:10193000CF911F910F910895FB0101900020E9F7CD
:101940003197AF01461B570B0C944407CF92DF929F
:10195000EF92FF920F931F93CF93DF938C016B0154
:101960007A0162E20E942C07E601EC0CFD1CEC16E9
:10197000FD0699F06991E0E3F2E0D480DD20C9F042
:10198000329683816813F9CF6CE5C8010E942C0759
:101990006D2DC8010E942C07EACF62E2C801DF91D9
:1019A000CF911F910F91FF90EF90DF90CF900C940B
:1019B0002C076111EECF66E472E0C8010E949C0C16
:1019C000D6CF2F923F924F925F926F927F928F92DB
:1019D0009F92AF92BF92CF92DF92EF92FF920F93BE
:1019E0001F93CF93DF93CDB7DEB76B970FB6F89405
:1019F000DEBF0FBECDBF7C018B01DC0114968C9144
:101A000014978A3009F4A0C2F0F4843009F479C242
:101A100068F4833009F490C26DE472E0C8010E945A
:101A20009C0CD80114968D919C9129C2853009F4A3
:101A30007BC2863089F78C9162E572E0811155C0D6
:101A400067E572E052C08E3009F440C0C8F48C30B3
:101A500019F7CD90DD90ED90FC90B701A601F7FE4F
:101A60000BC06DE2C8010E942C0744275527BA011C
:101A70004C195D096E097F09C8010E946907FCC104
:101A8000803209F415C2803439F66BE5C8010E9432
:101A90002C07D701FC90BFEFFB1609F4E9C1F80150
:101AA000868197816F2D45960E9490067C01B80132
:101AB0000E94E10CD7011596FC90BFEFFB1609F4CC
:101AC000D7C16CE2C8010E942C07E5CFF7018080E6
:101AD0009180A280B380A5019401C501B4010E9448
:101AE000531E882331F06DE472E0C8010E949C0C03
:101AF000C3C120E030E0A901C501B4010E94531E1A
:101B0000882371F0A5019401C501B4010E94DB1F77
:101B10009B01AC01C501B4010E94531E882319F337
:101B200020E030E0A901C501B4010E94531E87FFE7
:101B300008C06DE2C8010E942C07B7FAB094B7F84C
:101B4000B09420E836E948E15BE4C501B4010E94A5
:101B50007D2087FD83C074E1C72ED12CE0E2EE2EFC
:101B6000F12C312C212CF601EC5BFD4F6591759128
:101B700085919491A50194010E94531E18167CF042
:101B8000F601E45DFD4F2591359145915491C501D4
:101B9000B4010E94B91E4B015C012E0C3F1CF59450
:101BA000E794F4E0CF1AD1082CEFC2162FEFD2063B
:101BB000D1F63FEF3F8B20E030E0A901C501B40131
:101BC0000E947D2018160CF051C02CEA35EC47E23B
:101BD00057E3C501B4010E94531E18160CF446C009
:101BE000AF89B4E0AB02C0011124D12CC12CFC019F
:101BF000E45DFD4F2F019C012C5B3D4F39013F8976
:101C00003F3F09F433C0F201EC0DFD1D6591759164
:101C10008591949120E030E040E251E40E94B91EA9
:101C2000A50194010E947D2018167CF4F301EC0DAF
:101C3000FD1D2591359145915491C501B4010E9436
:101C4000B91E4B015C012E183F08F594E7948F896B
:101C500081508F8B94E0C91AD108D1CF50E2E52E84
:101C6000F12C85E08F8B312C212CA5CFC501B4013F
:101C70000E944E206B017C012B013C0180E492E428
:101C8000AFE0B0E0888F998FAA8FBB8F96E09F8BD3
:101C9000AAE04A16510461047104E0F0688D798D60
:101CA0008A8D9B8D2AE030E040E050E00E94A91F21
:101CB000288F398F4A8F5B8FBF89B150BF8BC3018B
:101CC000B2012AE030E040E050E00E94A91F290163
:101CD0003A01DECFC701B6010E94581E9B01AC013C
:101CE000C501B4010E94DA1F4B015C01688D798D3A
:101CF0008A8D9B8D0E94581E9B01AC01C501B401C9
:101D00000E94B91E2B013C010E944E204B015C0138
:101D10000E94581E9B01AC01C301B2010E94DA1F50
:101D20009B01AC010E94DB1F0E944E20860E971E75
:101D3000A81EB91E888D998DAA8DBB8D881699060F
:101D4000AA06BB06C0F09FEFC91AD90AE90AF90A28
:101D50002114310439F1AAE0CA16D104E104F104D6
:101D600008F1BFEF2B1A3B0A812C912C5401C12C96
:101D7000D12C7601C3942AE0422E512C612C712C77
:101D8000C501B401A30192010E94A91F672B682B12
:101D9000692B61F4EF891E164CF449015A01E15098
:101DA000EF8BEECF812C912C5401E5CFB701A6012A
:101DB000C8010E946907FF89FF2391F16E0121E1AB
:101DC000C20ED11CF88F76019AE0492E512C612C5D
:101DD000712C388D3150388F3F3F69F0C501B40107
:101DE000A30192010E94A91F605DD6016E936D014F
:101DF00049015A01EECFBF898B2F90E0BC0160955D
:101E00007095F701E81BF90B31978EE28083442728
:101E10005527461B570B6E0D7F1DC8010E944407B6
:101E20002114310449F165E6C8010E942C077101B3
:101E300037FE07C06DE2C8010E942C07F194E194BF
:101E4000F108FE0177969F018AE0C82ED12CC701C8
:101E5000B6010E949320805D82937B01672BB9F7C6
:101E6000A9014E1B5F0BBF01C8010E94440704C0BB
:101E70006DE5C8010E942C07F801848195816B965D
:101E80000FB6F894DEBF0FBECDBFDF91CF911F918B
:101E90000F91FF90EF90DF90CF90BF90AF909F9009
:101EA0008F907F906F905F904F903F902F9008950C
:101EB0006BE7C8010E942C07D701FC90EE24E39445
:101EC000BB24B394BFEFFB16D1F0F8018681978154
:101ED0006F2D45960E9490066C01B8010E94E10C9E
:101EE000D6011596FC90BFEFFB1639F06AE3E110BE
:101EF00001C06CE2C8010E942C07EB24E3CF6DE720
:101F0000B8CF6D917C9150E040E06115710541F0D2
:101F1000FB0101900020E9F73197AF01461B570BF9
:101F2000C8010E94A60CA8CFED91FC91438150E01E
:101F3000BF016C5F7F4FF4CFED91FC91438150E086
:101F4000BF016C5F7F4F90CF4D915D916D917C9102
:101F500093CD9F92AF92BF92CF92DF92EF92FF927A
:101F60000F931F93CF93DF938A01452B09F463C02E
:101F7000E9016B016596FC016081CE010E9490062B
:101F8000FC01BB24BA94892B09F0B5807601E89452
:101F9000F7F8AA24A3946701C00ED11E9924939444
:101FA000309709F448C0AA20D9F18481843039F0EF
:101FB000853051F190E080E0B0E0A0E00FC0A0815A
:101FC000B18190E080E0109741F0FD010190002088
:101FD000E9F73197CF018A1B9B0B9F77E816F9062B
:101FE000F9F4F801EC15FD05B9F46B2DCE01DF9184
:101FF000CF911F910F91FF90EF90DF90CF90BF9006
:10200000AF909F900C9490060190F081E02DDF013D
:102010001496838190E0E2CF91918D91981711F3FE
:10202000A9246B2DCE010E949006FC01892B09F496
:10203000B7CFB580B5CF90E080E0DF91CF911F9111
:102040000F91FF90EF90DF90CF90BF90AF909F9057
:102050000895FC0120813181C9014A964281538152
:1020600064817581009759F0D9015E96EC91E03258
:1020700011F090E080E0009711F00C94A90F90E02F
:1020800080E00895CF930E942910FC01892B41F133
:1020900094819A30E1F040F4992311F19630A9F03F
:1020A000C1E08C2FCF9108959C3089F09E30C1F70C
:1020B000C1E020E030E0A9016081718182819381DB
:1020C0000E94531E8111EDCF0BC0C081EACFC1E049
:1020D00080819181A281B381892B8A2B8B2B09F777
:1020E000C0E0DFCFCF92DF92EF92FF92CF93DF93EA
:1020F00000D01F921F92CDB7DEB70E942910FC01BD
:10210000892B49F084818630E1F040F48430C9F1B4
:10211000853009F44AC070E060E015C08C3001F1F0
:102120008E3009F446C08A30B1F780819181A28156
:10213000B381811520E89207A105B10560F7BC01C4
:1021400002C0608170E0CB010F900F900F900F9054
:102150000F90DF91CF91FF90EF90DF90CF90089597
:1021600080819181A281B3816C017D0120E8D20E32
:10217000E11CF11CC114D10421E0E206F10458F67F
:10218000DECF808191810E944D083A834B835C832E
:102190006D83CA80DB80EC80FD80223041F12330EA
:1021A00091F1213009F0B7CF08C080819181049668
:1021B000EACFC080D180E280F38020E030E040E0D0
:1021C00057ECC701B6010E947D2087FDA4CF20E017
:1021D0003EEF4FEF56E4C701B6010E94531E18169A
:1021E0000CF499CFC701B6010E944720ACCFD701AC
:1021F000C6019058AF4FBF4F0097A140B10508F0FE
:102200008ACFB601A0CFC11480E8D806E104F1045A
:10221000C0F381CFBC01990F880B990B97FD0C94EB
:10222000620C4AE00C941C0CCB010C9452210F93CD
:102230001F93CF93DF93EC0188819981009759F028
:102240002A813B812617370730F081E0DF91CF915B
:102250001F910F9108958B016F5F7F4F0E94DB21CB
:10226000009759F0998388831B830A832C813D81D1
:10227000232B59F7FC011082E8CF80E0E7CFCB0198
:10228000BA010C94DB21BF92CF92DF92EF92FF92C2
:102290000F931F93CF93DF93EC01198D1F3F81F0B4
:1022A000612F45960E949006FC018081898F3097AE
:1022B00009F477C014828FEF8583BF01812F76C028
:1022C0006C0135E0C30ED11CE880F9808F8988232A
:1022D00041F0C6010E94DC07E62FF72F182F309738
:1022E00049F71F89988D191324C0103109F459C07A
:1022F000110F6D897E89D701ED91FC91B4E01B9F90
:10230000A0011124C616D70609F044C00190F0813F
:10231000E02DBA01C7011995009709F442C020E1E8
:10232000F601DC0101900D922A95E1F79E8B8D8BD1
:10233000188F0D891E898F8921E0280F2F8BE4E0EB
:102340008E9FC0011124080F191F90E1B92E203172
:1023500011F48FE0B82EF6E0BF9EB0011124D70132
:10236000ED91FC910190F081E02DC7011995F801E4
:1023700093838283892B09F4B12CD801BC921196E6
:102380001C92012B71F0C6010E94DC07E62FF72F8B
:10239000182F8DCF0480F581E02DC7011995009786
:1023A00029F681E08A8360E070E08FEFDF91CF91C2
:1023B0001F910F91FF90EF90DF90CF90BF90089505
:1023C0002F923F924F925F926F927F928F929F9245
:1023D000AF92BF92CF92DF92EF92FF920F931F9333
:1023E000CF93DF9300D01F921F92CDB7DEB78C0141
:1023F0007B01542E0E940A076C01892B09F059C0F9
:10240000C8010E94BC06863609F4D3C1ACF58732F8
:1024100029F08B35E9F1823209F0D4C1D801159643
:102420001C921E92149712968D919C911397892B52
:1024300091F4CD90DC90F601608171818FE190E0A4
:102440000E94F10B009721F421E0D60112962C9303
:10245000F80193838283C8010E94A90A6C01892B29
:1024600041F5C8010E94880B25E0D70114962C93F2
:1024700014978D939C931DC0843709F479C18B37D1
:1024800009F47DC08E3609F09DC16DE472E077C11C
:1024900080E4D70114968C931497E114F10421F091
:1024A0008FEF8C9311968C9351101CC025E0C22E97
:1024B000D12CC6010F900F900F900F900F90DF91CD
:1024C000CF911F910F91FF90EF90DF90CF90BF9031
:1024D000AF909F908F907F906F905F904F903F90C4
:1024E0002F900895F8011486C8010E940A070097EA
:1024F00051F56DE5C8010E94D6068111DACF5A94D4
:10250000D8011D968D909C90C4010E944311782E95
:102510005B01672B21F494E0C92ED12CCACFF701BF
:1025200061816F3F91F0C40145960E949006DC01E5
:1025300015967C92F7017182452DB501C8010E9464
:10254000E011009739F06C01B4CFD7018C9311964C
:102550008C93F2CFC8010E940A070097A1F76DE59E
:10256000C8010E94D6068111A4CF6CE2C8010E9466
:10257000D6068111C5CF83E0C82ED12C9ACF80E238
:10258000F7018483E114F10419F08FEF80838183D4
:10259000552009F48BCFD8011C961C92C8010E94CB
:1025A0000A07009781F66DE7C8010E94D6068111DF
:1025B00080CF5A94F8011582148282819381892BED
:1025C00099F4C080D180D6016D917C918FE190E02B
:1025D0000E94F10B009719F421E0F6012283D80143
:1025E00013969C938E931297C8010E94BC06873263
:1025F00001F18232F1F0C8010E94BC06D82E0E947F
:10260000AA06882309F4B7CFF80114866D2DC801F6
:102610000E94700AC8010E94BC06D82E0E94AA0619
:102620008111F2CFD80112968D919C91892B41F4A2
:1026300072CFC8010E94A90A6C01892B09F039CF19
:10264000C8010E940A076C01892B09F032CF6AE3A6
:10265000C8010E94D606882309F48DCFD8011296AE
:10266000ED91FC91139714968D919C911597E80F1D
:10267000F91F148214966D917C9115977F771D96A2
:10268000AD90BC901E9712968D919C910496272F29
:102690002F77B42DB0784B2E422AE89447F8950155
:1026A000AC01742DC7010E94A90F6C01009709F0BD
:1026B0005BC0C8010E94880B3C01F80185849684A8
:1026C000C4010E944311282E5B01672B09F423CF1C
:1026D000C4010E944311382E962FC92ED72EC11443
:1026E000D10409F418CFE5E0D5011496EC931497C2
:1026F00011967C926E9215963C92D70111966C9130
:102700006F3F71F1C40145960E949006FC0125823D
:10271000D70111963C92452DB601C8010E94E011E7
:102720006C01892B09F0C5CEC8010E940A076C0113
:10273000892B09F0BECE6DE7C8010E94D606811133
:10274000B8CE6CE2C8010E94D606882309F413CFE4
:10275000C8010E940A076C01892B09F42BCFA9CE6E
:10276000F70120823182D7CFB5010E94BC09D3CFB7
:1027700086E0F701848381E0808362E572E0C8012E
:102780000F900F900F900F900F90DF91CF911F91AE
:102790000F91FF90EF90DF90CF90BF90AF909F9000
:1027A0008F907F906F905F904F903F902F900C9400
:1027B000E70686E0D70114968C9314971C9267E580
:1027C00072E0DDCFC8010E94BC064801BFE08B0E5D
:1027D000911CB12C782CA92C803384F08A3384F49A
:1027E000EFE3BE16A9F0D8011C961C92B394F40135
:1027F00081934F01C8010E94BC06EECF8B3281F35A
:1028000093ED980F923060F3982F9F7D953441F3AC
:102810000B0D111DD8011F961C92872D9A2D0E9419
:102820004D083A834B835C836D838A819B81AC81A5
:10283000BD812230A9F0233059F0213009F09BCE20
:102840002EE0F701248380839183A283B38331CE6A
:102850002AE0F701248380839183A283B38329CE66
:102860002CE0F7CF2F923F924F925F926F927F9220
:102870008F929F92AF92BF92CF92DF92EF92FF9290
:102880000F931F93CF93DF9300D000D0CDB7DEB767
:10289000FC0100811181C8014A96E1F4B12CA12C00
:1028A000C50126960FB6F894DEBF0FBECDBFDF91EF
:1028B000CF911F910F91FF90EF90DF90CF90BF903D
:1028C000AF909F908F907F906F905F904F903F90D0
:1028D0002F90089534805580C280D380C114D104D4
:1028E000E9F2F801268D211139C020E2268F2FEF61
:1028F000228F238F96013D8398014C2D5D81632D9E
:10290000752D0E94A90F5C01892B51F6C8010E9408
:1029100043118E837B01672B19F2C8010E9443117A
:10292000482E4B01672B09F4BBCF57FE1AC084E039
:10293000F7018483D182C082F7014582F801638D5B
:102940006F3F09F454C0C80145960E9490062E813D
:10295000FC012583F801438E5401A2CF203251F2AD
:102960009DCFE89457F8F80160807180C982FD819D
:10297000FA833B825C82BE016F5F7F4FC801039682
:102980000E94B507009751F0FC0122812F5F22833E
:1029900025E0F701248391838083CECFC32CD52CEF
:1029A000E894D7F8B301C6010E94F10B009721F417
:1029B00081E0F801828374CFE981FA81DC01149609
:1029C0009F012C0D3D1D2E173F0719F041914D938E
:1029D000FACFFC01EC0DFD1D1482F8012381348136
:1029E000FC0131832083F80194838383D1CF2E812E
:1029F000228FB1CFCF92DF92EF92FF920F931F936E
:102A0000CF93DF937B01FC01008111810E9432147E
:102A1000EC0180E0209781F0F701C080D180E28056
:102A2000F380B801CE010E94BC098EE08C83C8827D
:102A3000D982EA82FB8281E0DF91CF911F910F91D1
:102A4000FF90EF90DF90CF900895EF92FF920F9359
:102A50001F93CF93DF938B01FC01E080F1800E94F4
:102A60003214EC0180E0209791F0F801008111818F
:102A7000B701CE010E94BC098CE08C83012E000CB2
:102A8000220B330B088319832A833B8381E0DF9178
:102A9000CF911F910F91FF90EF900895EF92FF92C9
:102AA0000F931F93CF93DF938B01FC01E080F180A4
:102AB0000E943214EC0180E0209751F0F80110815F
:102AC000B701CE010E94BC0986E08C83188381E0A7
:102AD000DF91CF911F910F91FF90EF900895CF92CA
:102AE000DF92EF92FF920F931F93CF93DF93CDB7B7
:102AF000DEB7C453D8400FB6F894DEBF0FBECDBFCB
:102B0000C75DD74F688379838A839B83C952D84036
:102B1000C35DD74F288339834A835B83CD52D84026
:102B2000CF5CD74F0883C153D840CE5CD74FE882E3
:102B3000C253D840CD5CD74FD982C882C353D84046
:102B40008E010F5F174F80E092E0F8019183808340
:102B5000128214821382C8010596968B858B178A80
:102B600084E0808F9FEF918F168E978F22E030E068
:102B7000CF5DD74F39832883C152D8401A83098348
:102B80002DE532E03C832B838D838E8180788068B5
:102B90008E83BE016F5D774FCE0101967C010E944E
:102BA00025151A83098382E692E09C838B838BE050
:102BB0008D838E81807880688E83BE01675D774FBC
:102BC000C7010E94FA141A8309838EE692E09C835F
:102BD0008B8388E08D838E81807880688E83BE01B0
:102BE000635D774FC7010E94FA141A83098387E750
:102BF00092E09C838B8385E0D82EDD828E81807865
:102C000080688E83BE016F5C774FC7010E944E15AE
:102C10001A8309838DE792E09C838B8383E08D8305
:102C20008E81807880688E83BE016E5C774FC7018D
:102C30000E944E151A83098381E892E09C838B835E
:102C4000DD828E81807880688E83BE016D5C774FD7
:102C5000C7010E942515CF5DD74F19830883C15244
:102C6000D840CD5DD74FF982E882C352D840CB5DC2
:102C7000D74F19821882C552D840C95DD74F1983E2
:102C80000883C752D840BE016F5D774FC8014A968E
:102C90000E94E10C8115E8E09E0720F48E0D9F1D37
:102CA000FC011082B70187E693E00E94830C67E87D
:102CB00072E084E094E00E94120CB70184E094E09A
:102CC0000E94830CC8010E94240ACC5CD74F0FB627
:102CD000F894DEBF0FBECDBFDF91CF911F910F9152
:102CE000FF90EF90DF90CF900895CB010C94B62029
:102CF0001F920F920FB60F9211242F933F938F9331
:102D00009F93AF93BF938091630390916403A091CD
:102D10006503B091660330915E0323E0230F2D37E6
:102D200058F50196A11DB11D20935E0380936303A6
:102D300090936403A0936503B093660380915F034F
:102D400090916003A0916103B09162030196A11D6F
:102D5000B11D80935F0390936003A0936103B093D0
:102D60006203BF91AF919F918F913F912F910F90EF
:102D70000FBE0F901F90189526E8230F0296A11DF5
:102D8000B11DD2CF1F920F920FB60F9211240BB626
:102D90000F922F933F934F935F936F937F938F93F4
:102DA0009F93AF93BF93EF93FF9387E693E00E94C7
:102DB0001A05FF91EF91BF91AF919F918F917F91F4
:102DC0006F915F914F913F912F910F900BBE0F909C
:102DD0000FBE0F901F9018951F920F920FB60F9273
:102DE00011240BB60F922F938F939F93EF93FF9322
:102DF000E0917703F09178038081E0917D03F09179
:102E00007E0382FD1DC09081809180038F5F8F7350
:102E100020918103821741F0E0918003F0E0E959AD
:102E2000FC4F958F80938003FF91EF919F918F913D
:102E30002F910F900BBE0F900FBE0F901F90189503
:102E40008081F2CF1F920F920FB60F9211240BB612
:102E50000F922F933F934F935F936F937F938F9333
:102E60009F93AF93BF93EF93FF9384E094E00E940E
:102E70001A05FF91EF91BF91AF919F918F917F9133
:102E80006F915F914F913F912F910F900BBE0F90DB
:102E90000FBE0F901F9018951F920F920FB60F92B2
:102EA00011240BB60F922F938F939F93EF93FF9361
:102EB000E0911404F09115048081E0911A04F091DE
:102EC0001B0482FD1DC0908180911D048F5F8F7354
:102ED00020911E04821741F0E0911D04F0E0EC5FA8
:102EE000FB4F958F80931D04FF91EF919F918F91E0
:102EF0002F910F900BBE0F900FBE0F901F90189543
:102F00008081F2CF1F920F920FB60F9211240BB651
:102F10000F922F933F934F935F936F937F938F9372
:102F20009F93AF93BF93EF93FF9348E251E064E226
:102F300071E090E080E00E94D605FF91EF91BF9193
:102F4000AF919F918F917F916F915F914F913F9141
:102F50002F910F900BBE0F900FBE0F901F901895E2
:102F60001F920F920FB60F9211240BB60F922F9350
:102F70003F934F935F936F937F938F939F93AF9301
:102F8000BF93EF93FF9348EA50E064EA70E083E078
:102F900090E00E94D605FF91EF91BF91AF919F9174
:102FA0008F917F916F915F914F913F912F910F90F2
:102FB0000BBE0F900FBE0F901F9018951F920F928F
:102FC0000FB60F9211240BB60F922F933F934F938E
:102FD0005F936F937F938F939F93AF93BF93EF9381
:102FE000FF9348E950E064E970E082E090E00E94DD
:102FF000D605FF91EF91BF91AF919F918F917F91F6
:103000006F915F914F913F912F910F900BBE0F9059
:103010000FBE0F901F9018951F920F920FB60F9230
:1030200011240BB60F922F933F934F935F936F939F
:103030007F938F939F93AF93BF93EF93FF9348E852
:1030400050E064E870E081E090E00E94D605FF91D6
:10305000EF91BF91AF919F918F917F916F915F9110
:103060004F913F912F910F900BBE0F900FBE0F907D
:103070001F90189510926A031092690348EE53E06E
:1030800060E070E040936B0350936C0360936D03BA
:1030900070936E0382E292E09093680380936703DB
:1030A0002DEC30E030937403209373032CEC30E06C
:1030B000309376032093750328EC30E03093780347
:1030C0002093770329EC30E030937A03209379033F
:1030D0002AEC30E030937C0320937B032EEC30E02D
:1030E00030937E0320937D0310928003109281031E
:1030F0001092820310928303109207041092060428
:10310000409308045093090460930A0470930B04DD
:10311000909305048093040485EC90E0909311044F
:103120008093100484EC90E0909313048093120435
:1031300080EC90E0909315048093140481EC90E06F
:10314000909317048093160482EC90E090931904F6
:103150008093180486EC90E090931B0480931A04EB
:1031600010921D0410921E0410921F04109220044D
:1031700080913105803378F591E0980F9093310577
:103180008093450590E0FC01EE0FFF1FE80FF91F4B
:10319000EF55FB4F88EB9BE09283818388E080931F
:1031A00037058BE080933805EAEAF2E0E491E0939A
:1031B0003905E4E6F2E0E491E0933A0580E89EE325
:1031C000A0E0B0E080933F0590934005A0934105B7
:1031D000B093420508958FEF80934505DFCFCF93DD
:1031E000DF93CDB7DEB7C757D1090FB6F894DEBF6E
:1031F0000FBECDBF789484B5826084BD84B58160F4
:1032000084BD85B5826085BD85B5816085BD8091B1
:103210006E00816080936E00109281008091810029
:103220008260809381008091810081608093810021
:10323000809180008160809380008091B1008460E3
:103240008093B1008091B00081608093B000809144
:1032500091008260809391008091910081608093C1
:103260009100809190008160809390008091A100F6
:1032700082608093A1008091A10081608093A10071
:103280008091A00081608093A000809121018260E4
:10329000809321018091210181608093210180919F
:1032A000200181608093200180917A008460809366
:1032B0007A0080917A00826080937A0080917A000F
:1032C000816080937A0080917A00806880937A0090
:1032D0001092C10087E693E00E94A80184E094E088
:1032E0000E94A80162E0809137050E94C5022FB7B5
:1032F000F8948091630390916403A0916503B09169
:1033000066032FBF805D9740A109B10980933B05FB
:1033100090933C05A0933D05B0933E0587E38093D1
:10332000440562E087E10E94C50262E086E10E94F6
:10333000C50261E087E00E94C50261E086E00E946C
:10334000C50261E085E00E94C50280914505803399
:1033500008F052C061E089E00E94C50280914505F5
:10336000282F30E0F901EE0FFF1FE20FF31FEF559A
:10337000FB4F9081907C996090831092460510924B
:1033800047052CE0622F0E948720829FB001112404
:1033900030E020E0AB01420F531FFA01EE0FFF1F98
:1033A000E40FF51FEF55FB4F908196FD17C02F5F7F
:1033B0003F4F2C30310571F7813009F042C0109237
:1033C000800082E08093810010928500109284003A
:1033D000B19A80916F00826080936F00E091450503
:1033E0008E2F90E0FC01EE0FFF1FE80FF91FEF5545
:1033F000FB4F80818064808390E5292E312C2C0E38
:103400003D1E85E0280E311CE0E5F0E0EC0FFD1FCD
:103410007A96E896FFAFEEAFE8970E944D038823B7
:1034200049F0809138058C3009F48FC0B0F58B30AD
:1034300009F44CC0812C912C00ECA02E0FE7B02E8B
:103440006FC0823061F410929000809391001092CE
:1034500095001092940088BB80937100BFCF833099
:1034600069F41092A00082E08093A1001092A50060
:103470001092A40089BB80937200B0CF8111AECFAF
:103480001092200182E08093210110922501109278
:1034900024018ABB80937300A1CF8551823050F6FE
:1034A00010913405612F70E0762F662766277F77AD
:1034B00080913505682B90E080E00E94581E2DEC2D
:1034C0003CEC4CEC5DE30E94B91E5BC0609134059E
:1034D00070E090E080E00E94581E6B017C0110912A
:1034E000350517FF0AC0AC019B0160E070E080E881
:1034F0009FEB0E94DA1F6B017C011F70612F70E04F
:1035000090E080E00E945A1E2DEC3CEC4CEC5DE318
:103510000E94B91EA70196010E94DB1F4B015C01AE
:103520000E944D03882351F0809138058B3030F094
:103530008D3080F18551823008F491C0412C512C9E
:1035400010EC612E1FE7712E43C010913405612FDE
:1035500070E090E080E00E94581E6B017C01609159
:1035600035056F7070E090E080E00E945A1E2DECEF
:103570003CEC4CEC5DE30E94B91EA70196010E9451
:10358000DB1F4B015C0117FFCBCFB7FAB094B7F844
:10359000B094C6CF6091330570E090E080E00E9467
:1035A0005A1E2DEC3CEC4CEC5DE30E94B91E2B0145
:1035B0003C016091320570E090E080E00E945A1E6C
:1035C0009B01AC01C301B2010E94DB1F2B013C0136
:1035D00087E10E946E0201E0892B09F400E086E198
:1035E0000E946E0211E0892B09F410E080917B00AB
:1035F000877F80937B0084E480937C0080917A00B5
:10360000806480937A0080917A0086FDFCCFA0913F
:103610007800B09179002FEF30E00E94AF202FEFBB
:1036200033E040E050E00E94771F6901A50194015A
:10363000C501B4010E948220811108C0A30192013A
:10364000C301B2010E9482208823D9F065E972E0AB
:1036500084E094E00E94830C0E94A905DECE609174
:1036600032057091330576276727762790E080E052
:103670000E94581E2DEC3CEC4CEC5DE30E94B91E00
:10368000A5CFE12EA3019201C501B4010E946F15DF
:1036900087E693E00E94FA04892B09F4FCC0E296C5
:1036A0001FAE1EAEE297E4961FAE1EAEE497E696FE
:1036B0001FAE1EAEE69770E060E0CE0180599F4FCE
:1036C0000E941711E2962EAD3FADE29781113EC0E8
:1036D0002115310519F0C9010E945221E2961FAE51
:1036E0001EAEE297E6961FAE1EAEE697E4961FAEBC
:1036F0001EAEE4970E94AC04E696AEACBFACE69773
:1037000097FD2EC08A30910559F189831A82FFEF07
:10371000AF1ABF0AB501CE0180599F4F0E94171101
:10372000882341F3E2962EAD3FADE297E6968EAD4B
:103730009FADE697BE016F5F7F4F820F931F0E9480
:10374000C522E696BFAEAEAEE697D4CFE6961FAEE4
:103750001EAEE69762E472E0C9010E94C522CACF9C
:1037600080E092E062969FAF8EAF629763961FAE45
:10377000639765961FAE1EAE6597A7963FAE2EAEB9
:10378000A797A8961FAEA89784E0A9968FAFA99790
:103790008FEFAA968FAFAA97AF961FAEAF97E0961E
:1037A0008FAFE097E2968EAC9FACE29760E072E05C
:1037B000C1010E94080863961FAE639762966EACC3
:1037C0007FAC629765968EAD9FAD6597009759F077
:1037D000FC012081318165963FAF2EAF6597B30123
:1037E0000E94B209EFCFAF961FAEAF9780E590E091
:1037F0008C0F9D1F9A8389831C821B821E821D82CF
:103800001F8299868886A80CB91CBB86AA861D864D
:103810009F878E874AE0E8966EAD7FADE897CE0130
:1038200001960E94E0118C01892B51F48C8588232C
:1038300039F0AF968FADAF9783FF02C003E010E081
:103840008B819C81009731F0E981FA8160817181DF
:103850000E94B2090115110529F16DEA72E084E0B8
:1038600094E00E94120C000F111FF801EE5EFD4F54
:103870006081718184E094E00E94830CCE01805BC2
:103880009F4F0E94240AE2968EAD9FADE29700976B
:1038900011F00E94522166E970E080E090E00E9401
:1038A0001B03DACEE0E5F0E0EC0FFD1FFA83E983BD
:1038B00082EC92E09C838B8380E18D838E81807883
:1038C00080688E83CE0101960E9472104C01E0E563
:1038D000F0E0EC0FFD1FFA83E98383ED92E09C8317
:1038E0008B8383E08D838E81807880688E83CE0188
:1038F00001960E9472103C01640190E2891692E0E8
:103900009906E4F580914605E8E8CE2ED12CC81A38
:10391000D10887FDD394CC0CDD1CCC0CDD1C0D2C08
:10392000000CEE08FF088091470528E532E0281BCF
:10393000310987FD3395220F331F220F331F032ECA
:10394000000C440B550B2C193D094E095F09D4019D
:10395000E5EB8E16910414F0A4EBB0E0B7FF02C0C3
:10396000B0E0A0E00E94A11F24EB30E040E050E076
:103970000E94771FC20ED31EE41EF51E209145053E
:10398000203378F53091460588E890E0831B910953
:1039900037FD9395880F991F880F991FC816D90670
:1039A00084F03091470588E592E0831B910937FD4B
:1039B0009395880F991F880F991FC816D9060CF484
:1039C000C6010297880F991F4FB7F89430E0F901AC
:1039D000EE0FFF1FE20FF31FEF55FB4F9283818322
:1039E0004FBF80E590E08C0F9D1F9A83898387E706
:1039F00092E09C838B8315E01D830E810078006824
:103A00000E83CE0101960E944210E82E8DE792E0CF
:103A10009C838B8383E08D83B02E6894B7F8BE823D
:103A2000CE0101960E944210082F81E892E09C830B
:103A30008B831D836894B7F8BE82CE0101960E94E5
:103A400072105C01EE2009F413C1602F87E00E9420
:103A5000970261E0602786E00E94970261E085E0BE
:103A60000E94C502A114B10409F03FC060E085E0E6
:103A70000E94970267ED72E084E094E00E94120CCD
:103A8000C4010E940A116BEE72E084E094E00E948F
:103A9000120CC3010E940A1162EF72E084E094E00C
:103AA0000E94120C8E2D90E00E940A1161E073E0DA
:103AB00084E094E00E94120C802F90E00E940A1192
:103AC0006EE073E084E094E00E94120CB501BB0C40
:103AD000880B990B97FFE3C00E94620C63E472E0CD
:103AE00084E094E00E94120CC9CE9FEFA916B104A5
:103AF00011F461E0BCCFE1EDF1E0E491E150E2319D
:103B000008F0B0C0F0E08827E757F24E8F4F0C94D2
:103B1000A7209B1DA01DA51DAF1DB91D321EC31DD5
:103B2000CB1DD31DDD1DE71DF11D001E0A1E321E1B
:103B3000141E1E1E281E84B5806884BDA7BC9ACFA3
:103B400084B5806284BDA8BC95CF809180008068D8
:103B500080938000B0928900A09288008BCF8091E2
:103B60008000806280938000B0928B00A0928A00D7
:103B700081CF80918000886080938000B0928D001A
:103B8000A0928C0077CF8091B00080688093B000C5
:103B9000A092B3006FCF8091B00080628093B0009C
:103BA000A092B40067CF80919000806880939000CD
:103BB000B0929900A09298005DCF809190008062B1
:103BC00080939000B0929B00A0929A0053CF809176
:103BD0009000886080939000B0929D00A0929C001D
:103BE00049CF8091A00080688093A0008091A000C0
:103BF0008F7B8093A000B092A900A092A8003ACF3A
:103C00008091A00080628093A000B092AB00A0924F
:103C1000AA0030CF8091A00088608093A000B0926D
:103C2000AD00A092AC0026CF8091200180688093E7
:103C30002001B0922901A09228011CCF809120017F
:103C4000806280932001B0922B01A0922A0112CFB2
:103C500080912001886080932001B0922D01A09274
:103C60002C0108CFE0E8AE16B1040CF042CFFECE36
:103C700060E087E00E94970260E086E00E94970281
:103C800061E085E00E94C50260E085E00E94970245
:103C900064E670E080E090E00E941B03EBCE4AE017
:103CA0000E941C0C1BCF0E94951E08F481E0089511
:103CB000E89409C097FB3EF49095809570956195C6
:103CC0007F4F8F4F9F4F9923A9F0F92F96E9BB277C
:103CD0009395F695879577956795B795F111F8CFF8
:103CE000FAF4BB0F11F460FF1BC06F5F7F4F8F4F63
:103CF0009F4F16C0882311F096E911C0772321F059
:103D00009EE8872F762F05C0662371F096E8862FF0
:103D100070E060E02AF09A95660F771F881FDAF747
:103D2000880F9695879597F90895990F0008550F74
:103D3000AA0BE0E8FEEF16161706E807F907C0F031
:103D400012161306E407F50798F0621B730B840B39
:103D5000950B39F40A2661F0232B242B252B21F413
:103D600008950A2609F4A140A6958FEF811D811DB3
:103D700008950E94CC1E0C943D1F0E942F1F38F006
:103D80000E94361F20F0952311F00C94261F0C94EE
:103D90002C1F11240C94711F0E944E1F70F3959FCD
:103DA000C1F3950F50E0551F629FF001729FBB2732
:103DB000F00DB11D639FAA27F00DB11DAA1F649FCE
:103DC0006627B00DA11D661F829F2227B00DA11D81
:103DD000621F739FB00DA11D621F839FA00D611D07
:103DE000221F749F3327A00D611D231F849F600D28
:103DF000211D822F762F6A2F11249F5750409AF051
:103E0000F1F088234AF0EE0FFF1FBB1F661F771FDC
:103E1000881F91505040A9F79E3F510580F00C94A7
:103E2000261F0C94711F5F3FE4F3983ED4F38695F0
:103E300077956795B795F795E7959F5FC1F7FE2B47
:103E4000880F911D9695879597F9089597F99F6723
:103E500080E870E060E008959FEF80EC0895002412
:103E60000A941616170618060906089500240A94DF
:103E700012161306140605060895092E0394000C65
:103E800011F4882352F0BB0F40F4BF2B11F460FFF4
:103E900004C06F5F7F4F8F4F9F4F089557FD90581D
:103EA000440F551F59F05F3F71F04795880F97FBFE
:103EB000991F61F09F3F79F08795089512161306B8
:103EC0001406551FF2CF4695F1DF08C016161706E7
:103ED0001806991FF1CF869571056105089408951C
:103EE000E894BB2766277727CB0197F90895052E1D
:103EF00097FB1EF400940E948E1F57FD07D00E946E
:103F0000A91F07FC03D04EF40C948E1F50954095CA
:103F1000309521953F4F4F4F5F4F08959095809575
:103F2000709561957F4F8F4F9F4F08950E94CB1FD3
:103F3000A59F900DB49F900DA49F800D911D1124FD
:103F40000895B7FF0C94961F0E94961F821B930B37
:103F50000895A1E21A2EAA1BBB1BFD010DC0AA1FCA
:103F6000BB1FEE1FFF1FA217B307E407F50720F0E2
:103F7000A21BB30BE40BF50B661F771F881F991F5D
:103F80001A9469F760957095809590959B01AC01A6
:103F9000BD01CF010895A29FB001B39FC001A39FAF
:103FA000700D811D1124911DB29F700D811D112472
:103FB000911D08955058BB27AA270E94F21F0C9408
:103FC0003D1F0E942F1F38F00E94361F20F039F449
:103FD0009F3F19F426F40C942C1F0EF4E095E7FB98
:103FE0000C94261FE92F0E944E1F58F3BA17620740
:103FF00073078407950720F079F4A6F50C94701FD9
:104000000EF4E0950B2EBA2FA02D0B01B9019001F3
:104010000C01CA01A0011124FF27591B99F0593F37
:1040200050F4503E68F11A16F040A22F232F342F7F
:104030004427585FF3CF469537952795A795F040CD
:104040005395C9F77EF41F16BA0B620B730B840BE2
:10405000BAF09150A1F0FF0FBB1F661F771F881F9A
:10406000C2F70EC0BA0F621F731F841F48F48795F2
:1040700077956795B795F7959E3F08F0B0CF9395E4
:10408000880F08F09927EE0F9795879508950E945D
:104090004E206894B1110C94711F08950E94561F10
:1040A00088F09F5798F0B92F9927B751B0F0E1F0F9
:1040B000660F771F881F991F1AF0BA95C9F714C0A9
:1040C000B13091F00E94701FB1E008950C94701F00
:1040D000672F782F8827B85F39F0B93FCCF38695E2
:1040E00077956795B395D9F73EF49095809570953F
:1040F00061957F4F8F4F9F4F08950E94951E08F442
:104100008FEF08950E94951E880B990B0895991BB7
:1041100079E004C0991F961708F0961B881F7A95BE
:10412000C9F780950895AA1BBB1B51E107C0AA1FC0
:10413000BB1FA617B70710F0A61BB70B881F991F48
:104140005A95A9F780959095BC01CD010895EE0F81
:10415000FF1F881F8BBF0790F691E02D19940E94D6
:10416000CB1FB7FF0895821B930B08950F931F93E6
:10417000CF93DF938230910510F482E090E0E091DC
:104180004A05F0914B0530E020E0B0E0A0E0309728
:1041900099F42115310509F44AC0281B390B243044
:1041A0003105D8F58A819B816115710589F1FB0183
:1041B00093838283FE0111C040815181028113816A
:1041C00048175907E0F04817590799F4109761F01C
:1041D00012960C93129713961C933296CF01DF918F
:1041E000CF911F910F91089500934A0510934B05AD
:1041F000F4CF2115310551F04217530738F0A901CA
:10420000DB019A01BD01DF01F801C1CFEF01F9CF58
:1042100090934B0580934A05CDCFFE01E20FF31F2B
:10422000819391932250310939832883D7CF2091EC
:10423000480530914905232B41F420910402309127
:1042400005023093490520934805209102023091E0
:1042500003022115310541F42DB73EB74091060206
:1042600050910702241B350BE0914805F091490558
:10427000E217F307A0F42E1B3F0B2817390778F03D
:10428000AC014E5F5F4F2417350748F04E0F5F1F9C
:104290005093490540934805819391939FCFF0E057
:1042A000E0E09CCFCF93DF930097E9F0FC013297D9
:1042B00013821282A0914A05B0914B05ED0130E0C6
:1042C00020E01097A1F420813181820F931F20916B
:1042D0004805309149052817390709F061C0F09366
:1042E0004905E0934805DF91CF910895EA01CE1783
:1042F000DF07E8F54A815B819E0141155105B1F761
:10430000E901FB83EA8349915991C40FD51FEC174A
:10431000FD0761F4808191810296840F951FE90168
:1043200099838883828193819B838A83F0E0E0E094
:1043300012968D919C9113970097B9F52D913C9110
:104340001197CD010296820F931F2091480530915D
:1043500049052817390739F6309751F510924B0562
:1043600010924A05B0934905A0934805BCCFD3836A
:10437000C28340815181840F951FC817D90761F40A
:104380004E5F5F4F88819981480F591F5183408349
:104390008A819B81938382832115310509F0B0CFF7
:1043A000F0934B05E0934A059ECFFD01DC01C0CFA1
:1043B00013821282D7CF4F925F926F927F928F9229
:1043C0009F92AF92BF92CF92DF92EF92FF920F93A4
:1043D0001F93CF93DF938C01009799F4CB01DF916A
:1043E000CF911F910F91FF90EF90DF90CF90BF90F2
:1043F000AF909F908F907F906F905F904F900C94B4
:10440000B620FC01E60FF71F9C0122503109E2178C
:10441000F30708F4AEC0D901CD91DC911197C6170E
:10442000D70720F1C530D10578F0CE010497861763
:10443000970750F0C61BD70B2297C193D1936D936A
:104440007C93CF010E945221C801DF91CF911F912F
:104450000F91FF90EF90DF90CF90BF90AF909F9023
:104460008F907F906F905F904F9008955B01AC1A92
:10447000BD0A4C018C0E9D1EA0914A05B0914B05C2
:10448000512C412CF12CE12C109731F580914805ED
:10449000909149058815990509F05CC046165706A4
:1044A00008F058C08091020290910302009741F4F5
:1044B0008DB79EB74091060250910702841B950B61
:1044C000E817F90708F055C0F0934905E09348054F
:1044D000F90171836083B8CF8D919C9111971296E9
:1044E0006C90129713967C901397A815B90559F5FF
:1044F0006C0142E0C40ED11CCA14DB0420F1AC01F3
:104500004A195B09DA011296159780F0628273826C
:1045100051834083D9016D937C93E114F10471F0D0
:10452000D7011396FC93EE9312978ECF22968C0FA1
:104530009D1FF90191838083F301EFCFF0934B0529
:10454000E0934A0581CF4816590608F42C017D01F5
:10455000D3019ACFCB010E94B6207C01009749F08D
:10456000AE01B8010E94BC22C8010E9452218701FD
:104570006BCF10E000E068CFFB01DC0102C00190CE
:104580000D9241505040D8F70895FB01DC01019095
:104590000D920020E1F70895F894FFCF0C0200007F
:1045A0004C05800000000000751614113F111D031A
:1045B00020032B033B0348035103000000003C058C
:1045C0005C0489048905FA049804EC042F2F27273A
:1045D00022225C5C6208660C6E0A720D7409000D82
:1045E0000A005C7530303030006E756C6C0074728F
:1045F00075650066616C7365006E6F646500746557
:104600006D70657261747572650068756D69646955
:1046100074790073746172740064697200737065F8
:104620006564004E6F646520322053656E743A20D5
:10463000004448542073656E736F72207265616424
:10464000206661696C656421004E6F6465203120CD
:104650005061727365204572726F723A2000736503
:1046600072766F5F736572766F416E676C65006C12
:104670006472004E6F6465203120446174613A2099
:10468000416E676C653D002C204C44523D002C204F
:104690004D6F746F722053746172743D002C204D05
:1046A0006F746F72204469723D002C204D6F746FDF
:1046B000722053706565643D004F6B00456D7074EA
:1046C00079496E70757400496E636F6D706C6574B6
:1046D00065496E70757400496E76616C6964496EE7
:1046E000707574004E6F4D656D6F727900546F6F09
:0646F00044656570000046
:020000040003F7
:10E000000D9489F10D94B2F10D94B2F10D94B2F129
:10E010000D94B2F10D94B2F10D94B2F10D94B2F1F0
:10E020000D94B2F10D94B2F10D94B2F10D94B2F1E0
:10E030000D94B2F10D94B2F10D94B2F10D94B2F1D0
:10E040000D94B2F10D94B2F10D94B2F10D94B2F1C0
:10E050000D94B2F10D94B2F10D94B2F10D94B2F1B0
:10E060000D94B2F10D94B2F10D94B2F10D94B2F1A0
:10E070000D94B2F10D94B2F10D94B2F10D94B2F190
:10E080000D94B2F10D94B2F10D94B2F10D94B2F180
:10E090000D94B2F10D94B2F10D94B2F10D94B2F170
:10E0A0000D94B2F10D94B2F10D94B2F10D94B2F160
:10E0B0000D94B2F10D94B2F10D94B2F10D94B2F150
:10E0C0000D94B2F10D94B2F10D94B2F10D94B2F140
:10E0D0000D94B2F10D94B2F10D94B2F10D94B2F130
:10E0E0000D94B2F141546D656761323536300041AF
:10E0F000726475696E6F206578706C6F72657220DE
:10E1000073746B3530305632206279204D4C530099
:10E11000426F6F746C6F616465723E004875683F52
:10E1200000436F6D70696C6564206F6E203D200048
:10E130004350552054797065202020203D20005FF9
:10E140005F4156525F415243485F5F3D2000415658
:10E1500052204C696243205665723D20004743437C
:10E160002056657273696F6E203D20004350552024
:10E1700049442020202020203D20004C6F7720663D
:10E18000757365202020203D20004869676820665F
:10E190007573652020203D200045787420667573D6
:10E1A00065202020203D20004C6F636B2066757336
:10E1B000652020203D20004D617220203720323024
:10E1C000313300312E362E3800342E332E350056A2
:10E1D00023202020414444522020206F7020636F70
:10E1E00064652020202020696E73747275637469E1
:10E1F0006F6E2061646472202020496E74657272B3
:10E20000757074006E6F20766563746F7200726A49
:10E210006D702020006A6D70200057686174207056
:10E220006F72743A00506F7274206E6F7420737541
:10E2300070706F72746564004D7573742062652030
:10E2400061206C6574746572002000577269747483
:10E25000696E672045450052656164696E672045B7
:10E26000450045452065727220636E743D00504F35
:10E27000525400303D5A65726F2061646472003FF1
:10E280003D43505520737461747300403D454550C3
:10E29000524F4D207465737400423D426C696E6B41
:10E2A000204C454400453D44756D70204545505215
:10E2B0004F4D00463D44756D7020464C415348001B
:10E2C000483D48656C70004C3D4C69737420492F83
:10E2D0004F20506F72747300513D51756974005234
:10E2E0003D44756D702052414D00563D73686F7707
:10E2F00020696E7465727275707420566563746FF0
:10E30000727300593D506F727420626C696E6B00BD
:10E310002A0011241FBECFEFD1E2DEBFCDBF01E046
:10E320000CBF12E0A0E0B2E0EEE1FDEF03E00BBFB6
:10E3300002C007900D92A030B107D9F712E0A0E01B
:10E34000B2E001C01D92AE30B107E1F70F9460F367
:10E350000D948DFE01E20EBF0FEF0DBF11241FBE05
:10E360000D9460F30D9400F020E030E040ED57E0B4
:10E3700005C0FA013197F1F72F5F3F4F2817390792
:10E38000C0F308959C01260F311DC901A0E0B0E043
:10E390002F5F3F4FABBFFC018791882361F08093D3
:10E3A000C6008091C00086FFFCCF8091C0008064D1
:10E3B0008093C000EACF08958DE08093C6008091DD
:10E3C000C00086FFFCCF8091C00080648093C000B5
:10E3D0008AE08093C6008091C00086FFFCCF8091C8
:10E3E000C00080648093C00008950F94C2F10F9420
:10E3F000DCF10895FC019081992359F09093C600B7
:10E400008091C00086FFFCCF8091C0008064809323
:10E41000C0003196992379F70895282F982F929567
:10E420009F70892F805D8A3308F0895F8093C600D2
:10E430008091C00086FFFCCF8091C00080648093F3
:10E44000C000822F8F70982F905D9A3308F0995FEB
:10E450009093C6008091C00086FFFCCF8091C000E1
:10E4600080648093C00008959C01FB01853691056E
:10E470001CF46330710594F0C90164E670E00F94F8
:10E480002EFE605D7F4F6093C6008091C00086FFC6
:10E49000FCCF8091C00080648093C0002B30310598
:10E4A00014F43297B4F0C90164E670E00F942EFEC4
:10E4B0006AE070E00F942EFE605D7F4F6093C600AF
:10E4C0008091C00086FFFCCF8091C0008064809363
:10E4D000C000C9016AE070E00F942EFEC0968093E0
:10E4E000C6008091C00086FFFCCF8091C000806490
:10E4F0008093C00008951F93182F8EE692EE60E07F
:10E500000F94C2F11093C6008091C00086FFFCCF2B
:10E510008091C00080648093C0000F94DCF11F9153
:10E5200008952F923F924F925F926F927F928F92B7
:10E530009F92AF92BF92CF92DF92EF92FF920F9392
:10E540001F93DF93CF93CDB7DEB762970FB6F894E2
:10E55000DEBF0FBECDBF382E622ECA01DB015C01CB
:10E560006D01772420E2222E2E010894411C511CBB
:10E570008BC081E0A81680E0B80681E0C80680E084
:10E58000D80628F0C601AA27BB270F940DF2BB2797
:10E59000AD2D9C2D8B2D0F940DF28A2D0F940DF225
:10E5A0002092C6008091C00086FFFCCF8091C00001
:10E5B00080648093C0009DE29093C6008091C0006B
:10E5C00086FFFCCF8091C00080648093C0002092C1
:10E5D000C6008091C00086FFFCCF8091C00080649F
:10E5E0008093C00019828601750188249924A1E0D6
:10E5F0003A1651F03A1620F0B2E03B1661F409C029
:10E600000BBFF701779007C0C7010F9477FE782EF4
:10E6100002C0F7017080872D0F940DF22092C60082
:10E620008091C00086FFFCCF8091C0008064809301
:10E63000C000872D8052F401EF70F0708F3520F408
:10E64000E40DF51D708204C0E40DF51D8EE280839B
:10E650000894E11CF11C011D111D0894811C911CE2
:10E6600090E18916910409F0C2CF80E190E0A0E02A
:10E67000B0E0A80EB91ECA1EDB1E198AC2010F9493
:10E68000FAF10F94DCF16A94662009F072CF629679
:10E690000FB6F894DEBF0FBECDBFCF91DF911F91B3
:10E6A0000F91FF90EF90DF90CF90BF90AF909F9031
:10E6B0008F907F906F905F904F903F902F90089534
:10E6C0002F923F924F925F926F927F928F929F9282
:10E6D000AF92BF92CF92DF92EF92FF920F931F9370
:10E6E000DF93CF93CDB7DEB7CD53D1400FB6F894BB
:10E6F000DEBF0FBECDBF01E20EBF0FEF0DBF94B75F
:10E70000F894A89514BE80916000886180936000A1
:10E7100010926000789493FF05C0E0910002F091A0
:10E7200001021995279A2F9A8091C00082608093E8
:10E73000C00080E18093C40088E18093C1000000A4
:10E74000EE24FF24870144E0A42EB12CCC24DD2448
:10E7500024C0C5010197F1F70894E11CF11C011DCB
:10E76000111D21E2E2162EE4F20620E0020720E06D
:10E77000120718F031E0C32ED12CC801B70127ECE5
:10E780003BE140E050E00F9441FE611571058105C9
:10E79000910519F485B1805885B98091C00087FD35
:10E7A00003C0C114D104A9F2A6014F5F5F4FC25E3E
:10E7B000DE4F59834883CE51D140C25EDE4F8881FF
:10E7C0009981CE51D140019711F00D9410FEC05D9A
:10E7D000DE4F19821882C053D14060E0C15DDE4F28
:10E7E0001882CF52D14088249924C35DDE4F19820C
:10E7F0001882CD52D140C05EDE4F188219821A8233
:10E800001B82C052D140CE5CDE4F188219821A8220
:10E810001B82C253D140EE24FF2487010BBFF701B6
:10E8200007911691C45CDE4F19830883CC53D14005
:10E830000D940BFEC25EDE4F28813981CE51D1404E
:10E840002130310509F52091C600C25EDE4F1982E4
:10E850001882CE51D14022C02F5F3F4F4F4F5F4FA4
:10E86000213082E138078AE7480780E0580780F0C6
:10E87000C45CDE4FE881F981CC53D140EF5FFF4F9C
:10E8800019F0EE27FF27099420E030E040E050E047
:10E890008091C00087FFE0CF2091C600C35DDE4FAE
:10E8A00048815981CD52D1404F5F5F4FC35DDE4FEC
:10E8B00059834883CD52D140213209F063C64A3092
:10E8C000510508F05FC60894811C911C53E0851621
:10E8D000910409F059C600E010E018C081E280936D
:10E8E000C6008091C00086FFFCCF8091C00080648C
:10E8F0008093C0002F5F3F4F2931310579F70F9486
:10E90000DCF10F5F1F4F0530110519F020E030E0FA
:10E91000E5CF10920A0210920B0210920C02109294
:10E920000D02109206021092070210920802109235
:10E930000902109202021092030210920402109235
:10E9400005028FEE90EE60E00F94F5F180E191EE1C
:10E9500060E00F94C2F18091C00087FFFCCF9091DE
:10E96000C600903608F09F759032B8F09093C600BC
:10E970008091C00086FFFCCF8091C00080648093AE
:10E98000C000A0E2A093C6008091C00086FFFCCF2B
:10E990008091C00080648093C000983409F4D7C18E
:10E9A0009934B8F4923409F459C1933458F490333B
:10E9B00019F1903308F4E3C59F33A1F1903409F0C5
:10E9C000DEC5BDC0953409F470C1963409F0D7C5D1
:10E9D00098C1923509F42BC2933538F49C3409F46C
:10E9E000F5C1913509F0CBC518C2963509F445C279
:10E9F000993509F0C4C567C483E792EE62E00F94CD
:10EA0000F5F110920602109207021092080210927D
:10EA1000090210920A0210920B0210920C0210923C
:10EA20000D0213C18FE792EE62E00F94F5F18FEEC5
:10EA300090EE60E00F94F5F181E291EE60E00F94CA
:10EA4000C2F187EB91EE60E00F94F5F180E391EE77
:10EA500060E00F94C2F184EE90EE60E00F94F5F167
:10EA60008FE391EE60E00F94C2F186E090E061E008
:10EA700070E00F9434F20F94DCF18DE591EE60E0DC
:10EA80000F94C2F189EC91EE60E00F94F5F18EE401
:10EA900091EE60E00F94C2F183EC91EE60E00F9490
:10EAA000F5F18CE691EE60E00F94C2F18EE10F94E7
:10EAB0000DF288E90F940DF281E00F940DF20F949E
:10EAC000DCF18BE791EE60E00F94C2F119E0E0E039
:10EAD000F0E010935700E4918E2F0F940DF20F94F5
:10EAE000DCF18AE891EE60E00F94C2F1E3E0F0E03F
:10EAF00010935700E4918E2F0F940DF20F94DCF1D8
:10EB000089E991EE60E00F94C2F1E2E0F0E0109349
:10EB10005700E4918E2F0F940DF20F94DCF188EAE8
:10EB200091EE60E00F94C2F1E1E0F0E01093570045
:10EB30001491812F0F940DF20F94DCF107CF8BE825
:10EB400092EE62E00F94F5F18BE492EE60E00F94A8
:10EB5000F5F10F94DCF100E010E019C0C8016F2D51
:10EB60000F947FFEFF2031F489E492EE60E00F9471
:10EB7000C2F10BC0F092C6008091C00086FFFCCFAE
:10EB80008091C00080648093C0000F5F1F4FC80158
:10EB900081519F41A0E0B0E0ABBFFC01F790BAE229
:10EBA000FB1621F0E2E000301E07C1F60F94DCF105
:10EBB0000F94DCF187E592EE60E00F94F5F10F948D
:10EBC000DCF1CC24DD2400E010E01EC0C8010F946D
:10EBD00077FEF82E882331F489E492EE60E00F94FA
:10EBE000C2F10BC08093C6008091C00086FFFCCFAD
:10EBF0008091C00080648093C000FE1419F00894D6
:10EC0000C11CD11C0F5F1F4FC80181519F41A0E063
:10EC1000B0E0ABBFFC01E790FAE2EF1621F022E092
:10EC20000030120799F60F94DCF10F94DCF182E6C4
:10EC300092EE60E00F94C2F1C60161E070E00F94C3
:10EC400034F20F94DCF10F94DCF110920202109276
:10EC50000302109204021092050278CE89E992EE26
:10EC600062E00F94F5F1279A2F9A16C02F9880E052
:10EC700090E0E0EDF7E03197F1F7019684369105E9
:10EC8000C1F72F9A80E090E0E0EDF7E03197F1F7DF
:10EC9000019684369105C1F78091C00087FFE6CFC9
:10ECA0008091C00087FFFCCF64C485EA92EE62E0E9
:10ECB0000F94F5F140910202509103026091040219
:10ECC0007091050281E020E10F9491F2809102029F
:10ECD00090910302A0910402B091050280509F4FD1
:10ECE000AF4FBF4F8093020290930302A0930402A0
:10ECF000B093050280509041A040B04008F426CE69
:10ED0000A4CF83EB92EE62E00F94F5F140910602FE
:10ED100050910702609108027091090280E020E1A1
:10ED20000F9491F28091060290910702A09108023F
:10ED3000B091090280509F4FAF4FBF4F80930602A2
:10ED400090930702A0930802B0930902FFCD80ECD4
:10ED500092EE62E00F94F5F183E792EE60E00F949B
:10ED6000F5F18FE792EE60E00F94F5F18BE892EE0B
:10ED700060E00F94F5F189E992EE60E00F94F5F10F
:10ED800085EA92EE60E00F94F5F183EB92EE60E09D
:10ED90000F94F5F180EC92EE60E00F94F5F187ECC2
:10EDA00092EE60E00F94F5F188ED92EE60E00F9442
:10EDB000F5F18FED92EE60E00F94F5F18AEE92EEB0
:10EDC00060E00F94F5F183E093EEBDCD87EC92EE19
:10EDD00062E00F94F5F181E40F947BF282E40F94EA
:10EDE0007BF283E40F947BF284E40F947BF285E45E
:10EDF0000F947BF286E40F947BF287E40F947BF20E
:10EE000088E40F947BF28AE40F947BF28BE40F94F6
:10EE10007BF28CE40F947BF299CD88ED92EE62E068
:10EE20000F94F5F1772473948824992409C48FED05
:10EE300092EE62E00F94F5F140910A0250910B02BC
:10EE400060910C0270910D0282E020E10F9491F22A
:10EE500080910A0290910B02A0910C02B0910D02D8
:10EE600080509F4FAF4FBF4F80930A0290930B0289
:10EE7000A0930C02B0930D0269CD8AEE92EE62E08F
:10EE80000F94F5F184EE90EE60E00F94F5F18FECC5
:10EE900091EE60E00F94F5F1662477244301CC5D98
:10EEA000DE4F19821882C452D140D401C301B695F5
:10EEB000A79597958795CA5DDE4F88839983AA8326
:10EEC000BB83C652D140CC5DDE4FA881B981C4520C
:10EED000D1401196CC5DDE4FB983A883C452D14096
:10EEE000CD0162E070E00F9434F2B0E2B093C6005E
:10EEF0008091C00086FFFCCF8091C0008064809329
:10EF0000C000EDE2E093C6008091C00086FFFCCF18
:10EF10008091C00080648093C000F0E2F093C6004E
:10EF20008091C00086FFFCCF8091C00080648093F8
:10EF3000C000CA5DDE4FE880F9800A811B81C6529D
:10EF4000D140BB27A12F902F8F2D0F940DF2CA5DBA
:10EF5000DE4F8881C652D1400F940DF2B0E2FB2EF5
:10EF6000F092C6008091C00086FFFCCF8091C00067
:10EF700080648093C0000DE30093C6008091C000C0
:10EF800086FFFCCF8091C00080648093C00010E2B7
:10EF90001093C6008091C00086FFFCCF8091C00016
:10EFA00080648093C0008BBEF3012791C65DDE4F65
:10EFB0002883CA52D140A22EBB24CC24DD2408943D
:10EFC000611C711C811C911C8BBEF3018791282E42
:10EFD0003324442455240894611C711C811C911C09
:10EFE0008BBEF3013791C55DDE4F3883CB52D140E4
:10EFF0000894611C711C811C911C8BBEF30147910C
:10F00000C45DDE4F4883CC52D140ADEFEA2EAFEF66
:10F01000FA2EAFEF0A2FAFEF1A2F6E0C7F1C801E57
:10F02000911E142D032DF22CEE24EA0CFB1C0C1D5A
:10F030001D1D0F940DF220E22093C6008091C000A8
:10F0400086FFFCCF8091C00080648093C000C65DC5
:10F05000DE4F8881CA52D1400F940DF230E23093D6
:10F06000C6008091C00086FFFCCF8091C000806404
:10F070008093C000C45DDE4F8881CC52D1400F9494
:10F080000DF240E24093C6008091C00086FFFCCFA5
:10F090008091C00080648093C000C55DDE4F888190
:10F0A000CB52D1400F940DF250E25093C6008091A4
:10F0B000C00086FFFCCF8091C00080648093C000B8
:10F0C0008FEFE8168FEFF80680E0080780E018075A
:10F0D00031F484E092EE60E00F94C2F1DFC0D80119
:10F0E000C7018070907CA070B0708050904CA040A0
:10F0F000B040D1F52FEF3FE340E050E0E222F322B1
:10F1000004231523CA5DDE4FA880B980CA80DB8046
:10F11000C652D140AE0CBF1CC01ED11EAA0CBB1CD7
:10F12000CC1CDD1C8EE092EE60E00F94C2F1BB2798
:10F13000A12F902F8F2D0F940DF28E2D0F940DF285
:10F1400030E23093C6008091C00086FFFCCF8091F2
:10F15000C00080648093C0004EE34093C60080915D
:10F16000C00086FFFCCF87C08EE09EEFA0E0B0E03D
:10F17000E822F9220A231B239CE0E91694E9F90608
:10F1800090E0090790E0190709F088C0C45DDE4FE0
:10F19000A881CC52D140EA2EFF2400E010E0102FCD
:10F1A0000F2DFE2CEE24C55DDE4FB881CB52D14031
:10F1B000EB0EF11C011D111DD601C501817090706F
:10F1C000A070B070DC0199278827E80EF91E0A1F8D
:10F1D0001B1F20EF30E040E050E0A222B322C42207
:10F1E000D52241E1AA0CBB1CCC1CDD1C4A95D1F7F1
:10F1F000EA0CFB1C0C1D1D1D81E090E0A0E0B0E0BE
:10F20000282239224A225B2235E1220C331C441C7D
:10F21000551C3A95D1F7E20CF31C041D151D57013E
:10F220006801AA0CBB1CCC1CDD1C85E192EE60E0E1
:10F230000F94C2F1C801AA27BB270F940DF2BB2778
:10F24000A12F902F8F2D0F940DF28E2D0F940DF274
:10F2500090E29093C6008091C00086FFFCCF809121
:10F26000C00080648093C000AEE3A093C60080918C
:10F27000C00086FFFCCF8091C00080648093C000F6
:10F28000C601AA27BB270F940DF2BB27AD2D9C2DDD
:10F290008B2D0F940DF28A2D0F940DF20F94DCF14B
:10F2A000CC5DDE4FE881F981C452D140F99709F471
:10F2B0004DCBF4E0EF2EF12C012D112D6E0C7F1CA7
:10F2C000801E911EF2CD83E093EE62E00F94F5F183
:10F2D0008AE192EE60E00F94C2F18091C00087FF56
:10F2E000FCCF1091C6001F751093C6008091C0001E
:10F2F00086FFFCCF8091C00080648093C0000F9493
:10F30000DCF1812F81548A3108F036C1163409F4BA
:10F3100095C0173490F4133409F44EC0143430F40B
:10F320001134F1F0123409F01DC130C0143409F465
:10F3300059C0153409F016C16BC01A3409F4C4C0A1
:10F340001B3438F4173409F48FC0183409F00AC19B
:10F35000A1C01B3409F4D2C01C3409F003C1E8C0B9
:10F360008FEF81B90DC082B1809582B980E090E0C5
:10F37000E0EDF7E03197F1F70196883C9105C1F790
:10F380008091C00087FFEFCF12B8EFC08FEF84B934
:10F390000DC085B1809585B980E090E0E0EDF7E0A3
:10F3A0003197F1F70196883C9105C1F78091C00033
:10F3B00087FFEFCF15B8D9C08FEF87B90DC088B1DF
:10F3C000809588B980E090E0E0EDF7E03197F1F7C3
:10F3D0000196883C9105C1F78091C00087FFEFCF6F
